{
  "address": "0xCf7Ed3AccA5a467e9e704C703E8D87F634fB0Fc9",
  "abi": [
    {
      "inputs": [
        {
          "internalType": "uint256",
          "name": "initialSupply",
          "type": "uint256"
        },
        {
          "internalType": "uint64",
          "name": "_subscriptionID",
          "type": "uint64"
        },
        {
          "internalType": "address",
          "name": "vrfcoordinator",
          "type": "address"
        },
        {
          "internalType": "bytes32",
          "name": "gasLane",
          "type": "bytes32"
        },
        {
          "internalType": "uint32",
          "name": "callbackGasLimit",
          "type": "uint32"
        }
      ],
      "stateMutability": "nonpayable",
      "type": "constructor"
    },
    {
      "inputs": [
        {
          "internalType": "address",
          "name": "have",
          "type": "address"
        },
        {
          "internalType": "address",
          "name": "want",
          "type": "address"
        }
      ],
      "name": "OnlyCoordinatorCanFulfill",
      "type": "error"
    },
    {
      "anonymous": false,
      "inputs": [
        {
          "indexed": true,
          "internalType": "address",
          "name": "to",
          "type": "address"
        },
        {
          "indexed": true,
          "internalType": "uint256",
          "name": "amount",
          "type": "uint256"
        }
      ],
      "name": "Airdrop",
      "type": "event"
    },
    {
      "anonymous": false,
      "inputs": [
        {
          "indexed": true,
          "internalType": "address",
          "name": "owner",
          "type": "address"
        },
        {
          "indexed": true,
          "internalType": "address",
          "name": "spender",
          "type": "address"
        },
        {
          "indexed": false,
          "internalType": "uint256",
          "name": "value",
          "type": "uint256"
        }
      ],
      "name": "Approval",
      "type": "event"
    },
    {
      "anonymous": false,
      "inputs": [
        {
          "indexed": true,
          "internalType": "address",
          "name": "to",
          "type": "address"
        },
        {
          "indexed": true,
          "internalType": "uint256",
          "name": "amount",
          "type": "uint256"
        }
      ],
      "name": "Lottery",
      "type": "event"
    },
    {
      "anonymous": false,
      "inputs": [
        {
          "indexed": true,
          "internalType": "address",
          "name": "from",
          "type": "address"
        },
        {
          "indexed": true,
          "internalType": "address",
          "name": "to",
          "type": "address"
        },
        {
          "indexed": false,
          "internalType": "uint256",
          "name": "value",
          "type": "uint256"
        }
      ],
      "name": "Transfer",
      "type": "event"
    },
    {
      "inputs": [
        {
          "internalType": "address",
          "name": "to",
          "type": "address"
        }
      ],
      "name": "airdrop",
      "outputs": [],
      "stateMutability": "nonpayable",
      "type": "function"
    },
    {
      "inputs": [
        {
          "internalType": "address",
          "name": "owner",
          "type": "address"
        },
        {
          "internalType": "address",
          "name": "spender",
          "type": "address"
        }
      ],
      "name": "allowance",
      "outputs": [
        {
          "internalType": "uint256",
          "name": "",
          "type": "uint256"
        }
      ],
      "stateMutability": "view",
      "type": "function"
    },
    {
      "inputs": [
        {
          "internalType": "address",
          "name": "spender",
          "type": "address"
        },
        {
          "internalType": "uint256",
          "name": "amount",
          "type": "uint256"
        }
      ],
      "name": "approve",
      "outputs": [
        {
          "internalType": "bool",
          "name": "",
          "type": "bool"
        }
      ],
      "stateMutability": "nonpayable",
      "type": "function"
    },
    {
      "inputs": [
        {
          "internalType": "address",
          "name": "account",
          "type": "address"
        }
      ],
      "name": "balanceOf",
      "outputs": [
        {
          "internalType": "uint256",
          "name": "",
          "type": "uint256"
        }
      ],
      "stateMutability": "view",
      "type": "function"
    },
    {
      "inputs": [],
      "name": "decimals",
      "outputs": [
        {
          "internalType": "uint8",
          "name": "",
          "type": "uint8"
        }
      ],
      "stateMutability": "view",
      "type": "function"
    },
    {
      "inputs": [
        {
          "internalType": "address",
          "name": "spender",
          "type": "address"
        },
        {
          "internalType": "uint256",
          "name": "subtractedValue",
          "type": "uint256"
        }
      ],
      "name": "decreaseAllowance",
      "outputs": [
        {
          "internalType": "bool",
          "name": "",
          "type": "bool"
        }
      ],
      "stateMutability": "nonpayable",
      "type": "function"
    },
    {
      "inputs": [
        {
          "internalType": "address",
          "name": "spender",
          "type": "address"
        },
        {
          "internalType": "uint256",
          "name": "addedValue",
          "type": "uint256"
        }
      ],
      "name": "increaseAllowance",
      "outputs": [
        {
          "internalType": "bool",
          "name": "",
          "type": "bool"
        }
      ],
      "stateMutability": "nonpayable",
      "type": "function"
    },
    {
      "inputs": [],
      "name": "lottery",
      "outputs": [],
      "stateMutability": "nonpayable",
      "type": "function"
    },
    {
      "inputs": [],
      "name": "name",
      "outputs": [
        {
          "internalType": "string",
          "name": "",
          "type": "string"
        }
      ],
      "stateMutability": "view",
      "type": "function"
    },
    {
      "inputs": [
        {
          "internalType": "uint256",
          "name": "",
          "type": "uint256"
        }
      ],
      "name": "randomness",
      "outputs": [
        {
          "internalType": "bool",
          "name": "exists",
          "type": "bool"
        },
        {
          "internalType": "bool",
          "name": "fulfiled",
          "type": "bool"
        }
      ],
      "stateMutability": "view",
      "type": "function"
    },
    {
      "inputs": [
        {
          "internalType": "uint256",
          "name": "requestId",
          "type": "uint256"
        },
        {
          "internalType": "uint256[]",
          "name": "randomWords",
          "type": "uint256[]"
        }
      ],
      "name": "rawFulfillRandomWords",
      "outputs": [],
      "stateMutability": "nonpayable",
      "type": "function"
    },
    {
      "inputs": [],
      "name": "symbol",
      "outputs": [
        {
          "internalType": "string",
          "name": "",
          "type": "string"
        }
      ],
      "stateMutability": "view",
      "type": "function"
    },
    {
      "inputs": [],
      "name": "totalSupply",
      "outputs": [
        {
          "internalType": "uint256",
          "name": "",
          "type": "uint256"
        }
      ],
      "stateMutability": "view",
      "type": "function"
    },
    {
      "inputs": [
        {
          "internalType": "address",
          "name": "to",
          "type": "address"
        },
        {
          "internalType": "uint256",
          "name": "amount",
          "type": "uint256"
        }
      ],
      "name": "transfer",
      "outputs": [
        {
          "internalType": "bool",
          "name": "",
          "type": "bool"
        }
      ],
      "stateMutability": "nonpayable",
      "type": "function"
    },
    {
      "inputs": [
        {
          "internalType": "address",
          "name": "from",
          "type": "address"
        },
        {
          "internalType": "address",
          "name": "to",
          "type": "address"
        },
        {
          "internalType": "uint256",
          "name": "amount",
          "type": "uint256"
        }
      ],
      "name": "transferFrom",
      "outputs": [
        {
          "internalType": "bool",
          "name": "",
          "type": "bool"
        }
      ],
      "stateMutability": "nonpayable",
      "type": "function"
    }
  ],
  "transactionHash": "0xb2ff1deec0e687a6e020b0a34e6a2e3c819032f1f57dcd66eb515fe8e5623467",
  "args": [
    "5000000000000000000000000000",
    "1",
    "0x5FbDB2315678afecb367f032d93F642f64180aa3",
    "0x79d3d8832d904592c0bf9818b621522c988bb8b0c05cdc3b15aea1b6e8db0c15",
    "500000"
  ],
  "numDeployments": 1,
  "solcInputHash": "f2615afaf3d19cb9f384c70fb3b4a652",
  "bytecode": "0x6101206040523480156200001257600080fd5b506040516200275c3803806200275c833981810160405281019062000038919062000467565b826040518060400160405280600681526020017f5354454c4c4100000000000000000000000000000000000000000000000000008152506040518060400160405280600381526020017f53545300000000000000000000000000000000000000000000000000000000008152508160039081620000b691906200075f565b508060049081620000c891906200075f565b5050508073ffffffffffffffffffffffffffffffffffffffff1660808173ffffffffffffffffffffffffffffffffffffffff1681525050508367ffffffffffffffff1660c08167ffffffffffffffff16815250508273ffffffffffffffffffffffffffffffffffffffff166101008173ffffffffffffffffffffffffffffffffffffffff16815250508160a081815250508063ffffffff1660e08163ffffffff16815250506200017f30866200018a60201b60201c565b505050505062000961565b600073ffffffffffffffffffffffffffffffffffffffff168273ffffffffffffffffffffffffffffffffffffffff1603620001fc576040517f08c379a0000000000000000000000000000000000000000000000000000000008152600401620001f390620008a7565b60405180910390fd5b6200021060008383620002f760201b60201c565b8060026000828254620002249190620008f8565b92505081905550806000808473ffffffffffffffffffffffffffffffffffffffff1673ffffffffffffffffffffffffffffffffffffffff168152602001908152602001600020600082825401925050819055508173ffffffffffffffffffffffffffffffffffffffff16600073ffffffffffffffffffffffffffffffffffffffff167fddf252ad1be2c89b69c2b068fc378daa952ba7f163c4a11628f55a4df523b3ef83604051620002d7919062000944565b60405180910390a3620002f360008383620002fc60201b60201c565b5050565b505050565b505050565b600080fd5b6000819050919050565b6200031b8162000306565b81146200032757600080fd5b50565b6000815190506200033b8162000310565b92915050565b600067ffffffffffffffff82169050919050565b620003608162000341565b81146200036c57600080fd5b50565b600081519050620003808162000355565b92915050565b600073ffffffffffffffffffffffffffffffffffffffff82169050919050565b6000620003b38262000386565b9050919050565b620003c581620003a6565b8114620003d157600080fd5b50565b600081519050620003e581620003ba565b92915050565b6000819050919050565b6200040081620003eb565b81146200040c57600080fd5b50565b6000815190506200042081620003f5565b92915050565b600063ffffffff82169050919050565b620004418162000426565b81146200044d57600080fd5b50565b600081519050620004618162000436565b92915050565b600080600080600060a0868803121562000486576200048562000301565b5b600062000496888289016200032a565b9550506020620004a9888289016200036f565b9450506040620004bc88828901620003d4565b9350506060620004cf888289016200040f565b9250506080620004e28882890162000450565b9150509295509295909350565b600081519050919050565b7f4e487b7100000000000000000000000000000000000000000000000000000000600052604160045260246000fd5b7f4e487b7100000000000000000000000000000000000000000000000000000000600052602260045260246000fd5b600060028204905060018216806200057157607f821691505b60208210810362000587576200058662000529565b5b50919050565b60008190508160005260206000209050919050565b60006020601f8301049050919050565b600082821b905092915050565b600060088302620005f17fffffffffffffffffffffffffffffffffffffffffffffffffffffffffffffffff82620005b2565b620005fd8683620005b2565b95508019841693508086168417925050509392505050565b6000819050919050565b6000620006406200063a620006348462000306565b62000615565b62000306565b9050919050565b6000819050919050565b6200065c836200061f565b620006746200066b8262000647565b848454620005bf565b825550505050565b600090565b6200068b6200067c565b6200069881848462000651565b505050565b5b81811015620006c057620006b460008262000681565b6001810190506200069e565b5050565b601f8211156200070f57620006d9816200058d565b620006e484620005a2565b81016020851015620006f4578190505b6200070c6200070385620005a2565b8301826200069d565b50505b505050565b600082821c905092915050565b6000620007346000198460080262000714565b1980831691505092915050565b60006200074f838362000721565b9150826002028217905092915050565b6200076a82620004ef565b67ffffffffffffffff811115620007865762000785620004fa565b5b62000792825462000558565b6200079f828285620006c4565b600060209050601f831160018114620007d75760008415620007c2578287015190505b620007ce858262000741565b8655506200083e565b601f198416620007e7866200058d565b60005b828110156200081157848901518255600182019150602085019450602081019050620007ea565b868310156200083157848901516200082d601f89168262000721565b8355505b6001600288020188555050505b505050505050565b600082825260208201905092915050565b7f45524332303a206d696e7420746f20746865207a65726f206164647265737300600082015250565b60006200088f601f8362000846565b91506200089c8262000857565b602082019050919050565b60006020820190508181036000830152620008c28162000880565b9050919050565b7f4e487b7100000000000000000000000000000000000000000000000000000000600052601160045260246000fd5b6000620009058262000306565b9150620009128362000306565b92508282019050808211156200092d576200092c620008c9565b5b92915050565b6200093e8162000306565b82525050565b60006020820190506200095b600083018462000933565b92915050565b60805160a05160c05160e05161010051611daf620009ad6000396000610f1f01526000610f9f01526000610f7c01526000610f5b01526000818161043401526104880152611daf6000f3fe608060405234801561001057600080fd5b50600436106100f55760003560e01c8063313ce56711610097578063a457c2d711610066578063a457c2d71461029b578063a9059cbb146102cb578063ba13a572146102fb578063dd62ed3e14610305576100f5565b8063313ce567146101ff578063395093511461021d57806370a082311461024d57806395d89b411461027d576100f5565b80631b1d5b27116100d35780631b1d5b27146101665780631fe543e31461019757806321860a05146101b357806323b872dd146101cf576100f5565b806306fdde03146100fa578063095ea7b31461011857806318160ddd14610148575b600080fd5b610102610335565b60405161010f919061112c565b60405180910390f35b610132600480360381019061012d91906111f6565b6103c7565b60405161013f9190611251565b60405180910390f35b6101506103ea565b60405161015d919061127b565b60405180910390f35b610180600480360381019061017b9190611296565b6103f4565b60405161018e9291906112c3565b60405180910390f35b6101b160048036038101906101ac9190611434565b610432565b005b6101cd60048036038101906101c89190611490565b6104f2565b005b6101e960048036038101906101e491906114bd565b6105eb565b6040516101f69190611251565b60405180910390f35b61020761061a565b604051610214919061152c565b60405180910390f35b610237600480360381019061023291906111f6565b610623565b6040516102449190611251565b60405180910390f35b61026760048036038101906102629190611490565b61065a565b604051610274919061127b565b60405180910390f35b6102856106a2565b604051610292919061112c565b60405180910390f35b6102b560048036038101906102b091906111f6565b610734565b6040516102c29190611251565b60405180910390f35b6102e560048036038101906102e091906111f6565b6107ab565b6040516102f29190611251565b60405180910390f35b6103036107ce565b005b61031f600480360381019061031a9190611547565b610929565b60405161032c919061127b565b60405180910390f35b606060038054610344906115b6565b80601f0160208091040260200160405190810160405280929190818152602001828054610370906115b6565b80156103bd5780601f10610392576101008083540402835291602001916103bd565b820191906000526020600020905b8154815290600101906020018083116103a057829003601f168201915b5050505050905090565b6000806103d26109b0565b90506103df8185856109b8565b600191505092915050565b6000600254905090565b60056020528060005260406000206000915090508060000160009054906101000a900460ff16908060000160019054906101000a900460ff16905082565b7f000000000000000000000000000000000000000000000000000000000000000073ffffffffffffffffffffffffffffffffffffffff163373ffffffffffffffffffffffffffffffffffffffff16146104e457337f00000000000000000000000000000000000000000000000000000000000000006040517f1cf993f40000000000000000000000000000000000000000000000000000000081526004016104db9291906115f6565b60405180910390fd5b6104ee8282610b81565b5050565b600030905060006402540be40090508061050b8361065a565b1161054b576040517f08c379a00000000000000000000000000000000000000000000000000000000081526004016105429061166b565b60405180910390fd5b60006105568461065a565b1115610597576040517f08c379a000000000000000000000000000000000000000000000000000000000815260040161058e906116d7565b60405180910390fd5b6105a2828483610c19565b808373ffffffffffffffffffffffffffffffffffffffff167f8c32c568416fcf97be35ce5b27844cfddcd63a67a1a602c3595ba5dac38f303a60405160405180910390a3505050565b6000806105f66109b0565b9050610603858285610e8f565b61060e858585610c19565b60019150509392505050565b60006012905090565b60008061062e6109b0565b905061064f8185856106408589610929565b61064a9190611726565b6109b8565b600191505092915050565b60008060008373ffffffffffffffffffffffffffffffffffffffff1673ffffffffffffffffffffffffffffffffffffffff168152602001908152602001600020549050919050565b6060600480546106b1906115b6565b80601f01602080910402602001604051908101604052809291908181526020018280546106dd906115b6565b801561072a5780601f106106ff5761010080835404028352916020019161072a565b820191906000526020600020905b81548152906001019060200180831161070d57829003601f168201915b5050505050905090565b60008061073f6109b0565b9050600061074d8286610929565b905083811015610792576040517f08c379a0000000000000000000000000000000000000000000000000000000008152600401610789906117cc565b60405180910390fd5b61079f82868684036109b8565b60019250505092915050565b6000806107b66109b0565b90506107c3818585610c19565b600191505092915050565b60006107d93361065a565b111561081a576040517f08c379a0000000000000000000000000000000000000000000000000000000008152600401610811906116d7565b60405180910390fd5b6000610824610f1b565b905060003090506005600083815260200190815260200160002060000160009054906101000a900460ff1661088e576040517f08c379a000000000000000000000000000000000000000000000000000000000815260040161088590611838565b60405180910390fd5b6000600560008481526020019081526020016000206001016000815481106108b9576108b8611858565b5b9060005260206000200154633b9aca006108d39190611887565b90506108e0823383610c19565b803373ffffffffffffffffffffffffffffffffffffffff167fbbfa80d5a54baf5590b0bbe42cd4d30dbf44307ed6875f699cd0ee8a7f9cd1d660405160405180910390a3505050565b6000600160008473ffffffffffffffffffffffffffffffffffffffff1673ffffffffffffffffffffffffffffffffffffffff16815260200190815260200160002060008373ffffffffffffffffffffffffffffffffffffffff1673ffffffffffffffffffffffffffffffffffffffff16815260200190815260200160002054905092915050565b600033905090565b600073ffffffffffffffffffffffffffffffffffffffff168373ffffffffffffffffffffffffffffffffffffffff1603610a27576040517f08c379a0000000000000000000000000000000000000000000000000000000008152600401610a1e9061193b565b60405180910390fd5b600073ffffffffffffffffffffffffffffffffffffffff168273ffffffffffffffffffffffffffffffffffffffff1603610a96576040517f08c379a0000000000000000000000000000000000000000000000000000000008152600401610a8d906119cd565b60405180910390fd5b80600160008573ffffffffffffffffffffffffffffffffffffffff1673ffffffffffffffffffffffffffffffffffffffff16815260200190815260200160002060008473ffffffffffffffffffffffffffffffffffffffff1673ffffffffffffffffffffffffffffffffffffffff168152602001908152602001600020819055508173ffffffffffffffffffffffffffffffffffffffff168373ffffffffffffffffffffffffffffffffffffffff167f8c5be1e5ebec7d5bd14f71427d1e84f3dd0314c0f7b2291e5b200ac8c7c3b92583604051610b74919061127b565b60405180910390a3505050565b6040518060600160405280600115158152602001600015158152602001828152506005600084815260200190815260200160002060008201518160000160006101000a81548160ff02191690831515021790555060208201518160000160016101000a81548160ff0219169083151502179055506040820151816001019080519060200190610c11929190611032565b509050505050565b600073ffffffffffffffffffffffffffffffffffffffff168373ffffffffffffffffffffffffffffffffffffffff1603610c88576040517f08c379a0000000000000000000000000000000000000000000000000000000008152600401610c7f90611a5f565b60405180910390fd5b600073ffffffffffffffffffffffffffffffffffffffff168273ffffffffffffffffffffffffffffffffffffffff1603610cf7576040517f08c379a0000000000000000000000000000000000000000000000000000000008152600401610cee90611af1565b60405180910390fd5b610d02838383611028565b60008060008573ffffffffffffffffffffffffffffffffffffffff1673ffffffffffffffffffffffffffffffffffffffff16815260200190815260200160002054905081811015610d88576040517f08c379a0000000000000000000000000000000000000000000000000000000008152600401610d7f90611b83565b60405180910390fd5b8181036000808673ffffffffffffffffffffffffffffffffffffffff1673ffffffffffffffffffffffffffffffffffffffff16815260200190815260200160002081905550816000808573ffffffffffffffffffffffffffffffffffffffff1673ffffffffffffffffffffffffffffffffffffffff168152602001908152602001600020600082825401925050819055508273ffffffffffffffffffffffffffffffffffffffff168473ffffffffffffffffffffffffffffffffffffffff167fddf252ad1be2c89b69c2b068fc378daa952ba7f163c4a11628f55a4df523b3ef84604051610e76919061127b565b60405180910390a3610e8984848461102d565b50505050565b6000610e9b8484610929565b90507fffffffffffffffffffffffffffffffffffffffffffffffffffffffffffffffff8114610f155781811015610f07576040517f08c379a0000000000000000000000000000000000000000000000000000000008152600401610efe90611bef565b60405180910390fd5b610f1484848484036109b8565b5b50505050565b60007f000000000000000000000000000000000000000000000000000000000000000073ffffffffffffffffffffffffffffffffffffffff16635d3b1d307f00000000000000000000000000000000000000000000000000000000000000007f000000000000000000000000000000000000000000000000000000000000000060037f000000000000000000000000000000000000000000000000000000000000000060016040518663ffffffff1660e01b8152600401610fe0959493929190611ce4565b6020604051808303816000875af1158015610fff573d6000803e3d6000fd5b505050506040513d601f19601f820116820180604052508101906110239190611d4c565b905090565b505050565b505050565b82805482825590600052602060002090810192821561106e579160200282015b8281111561106d578251825591602001919060010190611052565b5b50905061107b919061107f565b5090565b5b80821115611098576000816000905550600101611080565b5090565b600081519050919050565b600082825260208201905092915050565b60005b838110156110d65780820151818401526020810190506110bb565b60008484015250505050565b6000601f19601f8301169050919050565b60006110fe8261109c565b61110881856110a7565b93506111188185602086016110b8565b611121816110e2565b840191505092915050565b6000602082019050818103600083015261114681846110f3565b905092915050565b6000604051905090565b600080fd5b600080fd5b600073ffffffffffffffffffffffffffffffffffffffff82169050919050565b600061118d82611162565b9050919050565b61119d81611182565b81146111a857600080fd5b50565b6000813590506111ba81611194565b92915050565b6000819050919050565b6111d3816111c0565b81146111de57600080fd5b50565b6000813590506111f0816111ca565b92915050565b6000806040838503121561120d5761120c611158565b5b600061121b858286016111ab565b925050602061122c858286016111e1565b9150509250929050565b60008115159050919050565b61124b81611236565b82525050565b60006020820190506112666000830184611242565b92915050565b611275816111c0565b82525050565b6000602082019050611290600083018461126c565b92915050565b6000602082840312156112ac576112ab611158565b5b60006112ba848285016111e1565b91505092915050565b60006040820190506112d86000830185611242565b6112e56020830184611242565b9392505050565b600080fd5b7f4e487b7100000000000000000000000000000000000000000000000000000000600052604160045260246000fd5b611329826110e2565b810181811067ffffffffffffffff82111715611348576113476112f1565b5b80604052505050565b600061135b61114e565b90506113678282611320565b919050565b600067ffffffffffffffff821115611387576113866112f1565b5b602082029050602081019050919050565b600080fd5b60006113b06113ab8461136c565b611351565b905080838252602082019050602084028301858111156113d3576113d2611398565b5b835b818110156113fc57806113e888826111e1565b8452602084019350506020810190506113d5565b5050509392505050565b600082601f83011261141b5761141a6112ec565b5b813561142b84826020860161139d565b91505092915050565b6000806040838503121561144b5761144a611158565b5b6000611459858286016111e1565b925050602083013567ffffffffffffffff81111561147a5761147961115d565b5b61148685828601611406565b9150509250929050565b6000602082840312156114a6576114a5611158565b5b60006114b4848285016111ab565b91505092915050565b6000806000606084860312156114d6576114d5611158565b5b60006114e4868287016111ab565b93505060206114f5868287016111ab565b9250506040611506868287016111e1565b9150509250925092565b600060ff82169050919050565b61152681611510565b82525050565b6000602082019050611541600083018461151d565b92915050565b6000806040838503121561155e5761155d611158565b5b600061156c858286016111ab565b925050602061157d858286016111ab565b9150509250929050565b7f4e487b7100000000000000000000000000000000000000000000000000000000600052602260045260246000fd5b600060028204905060018216806115ce57607f821691505b6020821081036115e1576115e0611587565b5b50919050565b6115f081611182565b82525050565b600060408201905061160b60008301856115e7565b61161860208301846115e7565b9392505050565b7f5265736572766520697320647279000000000000000000000000000000000000600082015250565b6000611655600e836110a7565b91506116608261161f565b602082019050919050565b6000602082019050818103600083015261168481611648565b9050919050565b7f52656365697665642049434f206265666f726500000000000000000000000000600082015250565b60006116c16013836110a7565b91506116cc8261168b565b602082019050919050565b600060208201905081810360008301526116f0816116b4565b9050919050565b7f4e487b7100000000000000000000000000000000000000000000000000000000600052601160045260246000fd5b6000611731826111c0565b915061173c836111c0565b9250828201905080821115611754576117536116f7565b5b92915050565b7f45524332303a2064656372656173656420616c6c6f77616e63652062656c6f7760008201527f207a65726f000000000000000000000000000000000000000000000000000000602082015250565b60006117b66025836110a7565b91506117c18261175a565b604082019050919050565b600060208201905081810360008301526117e5816117a9565b9050919050565b7f506c656173652074727920616761696e204c6174657200000000000000000000600082015250565b60006118226016836110a7565b915061182d826117ec565b602082019050919050565b6000602082019050818103600083015261185181611815565b9050919050565b7f4e487b7100000000000000000000000000000000000000000000000000000000600052603260045260246000fd5b6000611892826111c0565b915061189d836111c0565b92508282026118ab816111c0565b915082820484148315176118c2576118c16116f7565b5b5092915050565b7f45524332303a20617070726f76652066726f6d20746865207a65726f2061646460008201527f7265737300000000000000000000000000000000000000000000000000000000602082015250565b60006119256024836110a7565b9150611930826118c9565b604082019050919050565b6000602082019050818103600083015261195481611918565b9050919050565b7f45524332303a20617070726f766520746f20746865207a65726f20616464726560008201527f7373000000000000000000000000000000000000000000000000000000000000602082015250565b60006119b76022836110a7565b91506119c28261195b565b604082019050919050565b600060208201905081810360008301526119e6816119aa565b9050919050565b7f45524332303a207472616e736665722066726f6d20746865207a65726f20616460008201527f6472657373000000000000000000000000000000000000000000000000000000602082015250565b6000611a496025836110a7565b9150611a54826119ed565b604082019050919050565b60006020820190508181036000830152611a7881611a3c565b9050919050565b7f45524332303a207472616e7366657220746f20746865207a65726f206164647260008201527f6573730000000000000000000000000000000000000000000000000000000000602082015250565b6000611adb6023836110a7565b9150611ae682611a7f565b604082019050919050565b60006020820190508181036000830152611b0a81611ace565b9050919050565b7f45524332303a207472616e7366657220616d6f756e742065786365656473206260008201527f616c616e63650000000000000000000000000000000000000000000000000000602082015250565b6000611b6d6026836110a7565b9150611b7882611b11565b604082019050919050565b60006020820190508181036000830152611b9c81611b60565b9050919050565b7f45524332303a20696e73756666696369656e7420616c6c6f77616e6365000000600082015250565b6000611bd9601d836110a7565b9150611be482611ba3565b602082019050919050565b60006020820190508181036000830152611c0881611bcc565b9050919050565b6000819050919050565b611c2281611c0f565b82525050565b600067ffffffffffffffff82169050919050565b611c4581611c28565b82525050565b600061ffff82169050919050565b6000819050919050565b6000611c7e611c79611c7484611510565b611c59565b611c4b565b9050919050565b611c8e81611c63565b82525050565b600063ffffffff82169050919050565b611cad81611c94565b82525050565b6000611cce611cc9611cc484611510565b611c59565b611c94565b9050919050565b611cde81611cb3565b82525050565b600060a082019050611cf96000830188611c19565b611d066020830187611c3c565b611d136040830186611c85565b611d206060830185611ca4565b611d2d6080830184611cd5565b9695505050505050565b600081519050611d46816111ca565b92915050565b600060208284031215611d6257611d61611158565b5b6000611d7084828501611d37565b9150509291505056fea2646970667358221220921551a9c28a1b59615b3b276bee1458180f8cb00022be37502376d65e67eb9e64736f6c63430008110033",
  "devdoc": {
    "kind": "dev",
    "methods": {
      "allowance(address,address)": {
        "details": "See {IERC20-allowance}."
      },
      "approve(address,uint256)": {
        "details": "See {IERC20-approve}. NOTE: If `amount` is the maximum `uint256`, the allowance is not updated on `transferFrom`. This is semantically equivalent to an infinite approval. Requirements: - `spender` cannot be the zero address."
      },
      "balanceOf(address)": {
        "details": "See {IERC20-balanceOf}."
      },
      "decimals()": {
        "details": "Returns the number of decimals used to get its user representation. For example, if `decimals` equals `2`, a balance of `505` tokens should be displayed to a user as `5.05` (`505 / 10 ** 2`). Tokens usually opt for a value of 18, imitating the relationship between Ether and Wei. This is the default value returned by this function, unless it's overridden. NOTE: This information is only used for _display_ purposes: it in no way affects any of the arithmetic of the contract, including {IERC20-balanceOf} and {IERC20-transfer}."
      },
      "decreaseAllowance(address,uint256)": {
        "details": "Atomically decreases the allowance granted to `spender` by the caller. This is an alternative to {approve} that can be used as a mitigation for problems described in {IERC20-approve}. Emits an {Approval} event indicating the updated allowance. Requirements: - `spender` cannot be the zero address. - `spender` must have allowance for the caller of at least `subtractedValue`."
      },
      "increaseAllowance(address,uint256)": {
        "details": "Atomically increases the allowance granted to `spender` by the caller. This is an alternative to {approve} that can be used as a mitigation for problems described in {IERC20-approve}. Emits an {Approval} event indicating the updated allowance. Requirements: - `spender` cannot be the zero address."
      },
      "name()": {
        "details": "Returns the name of the token."
      },
      "symbol()": {
        "details": "Returns the symbol of the token, usually a shorter version of the name."
      },
      "totalSupply()": {
        "details": "See {IERC20-totalSupply}."
      },
      "transfer(address,uint256)": {
        "details": "See {IERC20-transfer}. Requirements: - `to` cannot be the zero address. - the caller must have a balance of at least `amount`."
      },
      "transferFrom(address,address,uint256)": {
        "details": "See {IERC20-transferFrom}. Emits an {Approval} event indicating the updated allowance. This is not required by the EIP. See the note at the beginning of {ERC20}. NOTE: Does not update the allowance if the current allowance is the maximum `uint256`. Requirements: - `from` and `to` cannot be the zero address. - `from` must have a balance of at least `amount`. - the caller must have allowance for ``from``'s tokens of at least `amount`."
      }
    },
    "version": 1
  },
  "userdoc": {
    "kind": "user",
    "methods": {},
    "version": 1
  },
  "storageLayout": {
    "storage": [
      {
        "astId": 1325,
        "contract": "contracts/Stella.sol:Stella",
        "label": "_balances",
        "offset": 0,
        "slot": "0",
        "type": "t_mapping(t_address,t_uint256)"
      },
      {
        "astId": 1331,
        "contract": "contracts/Stella.sol:Stella",
        "label": "_allowances",
        "offset": 0,
        "slot": "1",
        "type": "t_mapping(t_address,t_mapping(t_address,t_uint256))"
      },
      {
        "astId": 1333,
        "contract": "contracts/Stella.sol:Stella",
        "label": "_totalSupply",
        "offset": 0,
        "slot": "2",
        "type": "t_uint256"
      },
      {
        "astId": 1335,
        "contract": "contracts/Stella.sol:Stella",
        "label": "_name",
        "offset": 0,
        "slot": "3",
        "type": "t_string_storage"
      },
      {
        "astId": 1337,
        "contract": "contracts/Stella.sol:Stella",
        "label": "_symbol",
        "offset": 0,
        "slot": "4",
        "type": "t_string_storage"
      },
      {
        "astId": 2059,
        "contract": "contracts/Stella.sol:Stella",
        "label": "randomness",
        "offset": 0,
        "slot": "5",
        "type": "t_mapping(t_uint256,t_struct(Status)2054_storage)"
      }
    ],
    "types": {
      "t_address": {
        "encoding": "inplace",
        "label": "address",
        "numberOfBytes": "20"
      },
      "t_array(t_uint256)dyn_storage": {
        "base": "t_uint256",
        "encoding": "dynamic_array",
        "label": "uint256[]",
        "numberOfBytes": "32"
      },
      "t_bool": {
        "encoding": "inplace",
        "label": "bool",
        "numberOfBytes": "1"
      },
      "t_mapping(t_address,t_mapping(t_address,t_uint256))": {
        "encoding": "mapping",
        "key": "t_address",
        "label": "mapping(address => mapping(address => uint256))",
        "numberOfBytes": "32",
        "value": "t_mapping(t_address,t_uint256)"
      },
      "t_mapping(t_address,t_uint256)": {
        "encoding": "mapping",
        "key": "t_address",
        "label": "mapping(address => uint256)",
        "numberOfBytes": "32",
        "value": "t_uint256"
      },
      "t_mapping(t_uint256,t_struct(Status)2054_storage)": {
        "encoding": "mapping",
        "key": "t_uint256",
        "label": "mapping(uint256 => struct Stella.Status)",
        "numberOfBytes": "32",
        "value": "t_struct(Status)2054_storage"
      },
      "t_string_storage": {
        "encoding": "bytes",
        "label": "string",
        "numberOfBytes": "32"
      },
      "t_struct(Status)2054_storage": {
        "encoding": "inplace",
        "label": "struct Stella.Status",
        "members": [
          {
            "astId": 2048,
            "contract": "contracts/Stella.sol:Stella",
            "label": "exists",
            "offset": 0,
            "slot": "0",
            "type": "t_bool"
          },
          {
            "astId": 2050,
            "contract": "contracts/Stella.sol:Stella",
            "label": "fulfiled",
            "offset": 1,
            "slot": "0",
            "type": "t_bool"
          },
          {
            "astId": 2053,
            "contract": "contracts/Stella.sol:Stella",
            "label": "words",
            "offset": 0,
            "slot": "1",
            "type": "t_array(t_uint256)dyn_storage"
          }
        ],
        "numberOfBytes": "64"
      },
      "t_uint256": {
        "encoding": "inplace",
        "label": "uint256",
        "numberOfBytes": "32"
      }
    }
  }
}