{
  "address": "0x5FbDB2315678afecb367f032d93F642f64180aa3",
  "abi": [
    {
      "inputs": [
        {
          "internalType": "uint256",
          "name": "initialSupply",
          "type": "uint256"
        }
      ],
      "stateMutability": "nonpayable",
      "type": "constructor"
    },
    {
      "anonymous": false,
      "inputs": [
        {
          "indexed": false,
          "internalType": "address",
          "name": "to",
          "type": "address"
        },
        {
          "indexed": false,
          "internalType": "uint256",
          "name": "amount",
          "type": "uint256"
        }
      ],
      "name": "Airdrop",
      "type": "event"
    },
    {
      "anonymous": false,
      "inputs": [
        {
          "indexed": true,
          "internalType": "address",
          "name": "owner",
          "type": "address"
        },
        {
          "indexed": true,
          "internalType": "address",
          "name": "spender",
          "type": "address"
        },
        {
          "indexed": false,
          "internalType": "uint256",
          "name": "value",
          "type": "uint256"
        }
      ],
      "name": "Approval",
      "type": "event"
    },
    {
      "anonymous": false,
      "inputs": [
        {
          "indexed": true,
          "internalType": "address",
          "name": "from",
          "type": "address"
        },
        {
          "indexed": true,
          "internalType": "address",
          "name": "to",
          "type": "address"
        },
        {
          "indexed": false,
          "internalType": "uint256",
          "name": "value",
          "type": "uint256"
        }
      ],
      "name": "Transfer",
      "type": "event"
    },
    {
      "inputs": [
        {
          "internalType": "address",
          "name": "to",
          "type": "address"
        }
      ],
      "name": "airdrop",
      "outputs": [],
      "stateMutability": "nonpayable",
      "type": "function"
    },
    {
      "inputs": [
        {
          "internalType": "address",
          "name": "owner",
          "type": "address"
        },
        {
          "internalType": "address",
          "name": "spender",
          "type": "address"
        }
      ],
      "name": "allowance",
      "outputs": [
        {
          "internalType": "uint256",
          "name": "",
          "type": "uint256"
        }
      ],
      "stateMutability": "view",
      "type": "function"
    },
    {
      "inputs": [
        {
          "internalType": "address",
          "name": "spender",
          "type": "address"
        },
        {
          "internalType": "uint256",
          "name": "amount",
          "type": "uint256"
        }
      ],
      "name": "approve",
      "outputs": [
        {
          "internalType": "bool",
          "name": "",
          "type": "bool"
        }
      ],
      "stateMutability": "nonpayable",
      "type": "function"
    },
    {
      "inputs": [
        {
          "internalType": "address",
          "name": "account",
          "type": "address"
        }
      ],
      "name": "balanceOf",
      "outputs": [
        {
          "internalType": "uint256",
          "name": "",
          "type": "uint256"
        }
      ],
      "stateMutability": "view",
      "type": "function"
    },
    {
      "inputs": [],
      "name": "decimals",
      "outputs": [
        {
          "internalType": "uint8",
          "name": "",
          "type": "uint8"
        }
      ],
      "stateMutability": "view",
      "type": "function"
    },
    {
      "inputs": [
        {
          "internalType": "address",
          "name": "spender",
          "type": "address"
        },
        {
          "internalType": "uint256",
          "name": "subtractedValue",
          "type": "uint256"
        }
      ],
      "name": "decreaseAllowance",
      "outputs": [
        {
          "internalType": "bool",
          "name": "",
          "type": "bool"
        }
      ],
      "stateMutability": "nonpayable",
      "type": "function"
    },
    {
      "inputs": [
        {
          "internalType": "address",
          "name": "spender",
          "type": "address"
        },
        {
          "internalType": "uint256",
          "name": "addedValue",
          "type": "uint256"
        }
      ],
      "name": "increaseAllowance",
      "outputs": [
        {
          "internalType": "bool",
          "name": "",
          "type": "bool"
        }
      ],
      "stateMutability": "nonpayable",
      "type": "function"
    },
    {
      "inputs": [],
      "name": "name",
      "outputs": [
        {
          "internalType": "string",
          "name": "",
          "type": "string"
        }
      ],
      "stateMutability": "view",
      "type": "function"
    },
    {
      "inputs": [],
      "name": "symbol",
      "outputs": [
        {
          "internalType": "string",
          "name": "",
          "type": "string"
        }
      ],
      "stateMutability": "view",
      "type": "function"
    },
    {
      "inputs": [],
      "name": "totalSupply",
      "outputs": [
        {
          "internalType": "uint256",
          "name": "",
          "type": "uint256"
        }
      ],
      "stateMutability": "view",
      "type": "function"
    },
    {
      "inputs": [
        {
          "internalType": "address",
          "name": "to",
          "type": "address"
        },
        {
          "internalType": "uint256",
          "name": "amount",
          "type": "uint256"
        }
      ],
      "name": "transfer",
      "outputs": [
        {
          "internalType": "bool",
          "name": "",
          "type": "bool"
        }
      ],
      "stateMutability": "nonpayable",
      "type": "function"
    },
    {
      "inputs": [
        {
          "internalType": "address",
          "name": "from",
          "type": "address"
        },
        {
          "internalType": "address",
          "name": "to",
          "type": "address"
        },
        {
          "internalType": "uint256",
          "name": "amount",
          "type": "uint256"
        }
      ],
      "name": "transferFrom",
      "outputs": [
        {
          "internalType": "bool",
          "name": "",
          "type": "bool"
        }
      ],
      "stateMutability": "nonpayable",
      "type": "function"
    }
  ],
  "transactionHash": "0x80e5aaa632c01c82f7486c05342ecd699ef0da1c1ac9dc56eca460744945b113",
  "args": [
    "5000000000000000000000000000"
  ],
  "numDeployments": 1,
  "solcInputHash": "e6b887183e0b9822b8a059fb7e5ea16c",
  "bytecode": "0x60806040523480156200001157600080fd5b5060405162001c5438038062001c54833981810160405281019062000037919062000299565b6040518060400160405280600681526020017f5354454c4c4100000000000000000000000000000000000000000000000000008152506040518060400160405280600381526020017f53545300000000000000000000000000000000000000000000000000000000008152508160039081620000b491906200053b565b508060049081620000c691906200053b565b505050620000db3082620000e260201b60201c565b506200073d565b600073ffffffffffffffffffffffffffffffffffffffff168273ffffffffffffffffffffffffffffffffffffffff160362000154576040517f08c379a00000000000000000000000000000000000000000000000000000000081526004016200014b9062000683565b60405180910390fd5b62000168600083836200024f60201b60201c565b80600260008282546200017c9190620006d4565b92505081905550806000808473ffffffffffffffffffffffffffffffffffffffff1673ffffffffffffffffffffffffffffffffffffffff168152602001908152602001600020600082825401925050819055508173ffffffffffffffffffffffffffffffffffffffff16600073ffffffffffffffffffffffffffffffffffffffff167fddf252ad1be2c89b69c2b068fc378daa952ba7f163c4a11628f55a4df523b3ef836040516200022f919062000720565b60405180910390a36200024b600083836200025460201b60201c565b5050565b505050565b505050565b600080fd5b6000819050919050565b62000273816200025e565b81146200027f57600080fd5b50565b600081519050620002938162000268565b92915050565b600060208284031215620002b257620002b162000259565b5b6000620002c28482850162000282565b91505092915050565b600081519050919050565b7f4e487b7100000000000000000000000000000000000000000000000000000000600052604160045260246000fd5b7f4e487b7100000000000000000000000000000000000000000000000000000000600052602260045260246000fd5b600060028204905060018216806200034d57607f821691505b60208210810362000363576200036262000305565b5b50919050565b60008190508160005260206000209050919050565b60006020601f8301049050919050565b600082821b905092915050565b600060088302620003cd7fffffffffffffffffffffffffffffffffffffffffffffffffffffffffffffffff826200038e565b620003d986836200038e565b95508019841693508086168417925050509392505050565b6000819050919050565b60006200041c6200041662000410846200025e565b620003f1565b6200025e565b9050919050565b6000819050919050565b6200043883620003fb565b62000450620004478262000423565b8484546200039b565b825550505050565b600090565b6200046762000458565b620004748184846200042d565b505050565b5b818110156200049c57620004906000826200045d565b6001810190506200047a565b5050565b601f821115620004eb57620004b58162000369565b620004c0846200037e565b81016020851015620004d0578190505b620004e8620004df856200037e565b83018262000479565b50505b505050565b600082821c905092915050565b60006200051060001984600802620004f0565b1980831691505092915050565b60006200052b8383620004fd565b9150826002028217905092915050565b6200054682620002cb565b67ffffffffffffffff811115620005625762000561620002d6565b5b6200056e825462000334565b6200057b828285620004a0565b600060209050601f831160018114620005b357600084156200059e578287015190505b620005aa85826200051d565b8655506200061a565b601f198416620005c38662000369565b60005b82811015620005ed57848901518255600182019150602085019450602081019050620005c6565b868310156200060d578489015162000609601f891682620004fd565b8355505b6001600288020188555050505b505050505050565b600082825260208201905092915050565b7f45524332303a206d696e7420746f20746865207a65726f206164647265737300600082015250565b60006200066b601f8362000622565b9150620006788262000633565b602082019050919050565b600060208201905081810360008301526200069e816200065c565b9050919050565b7f4e487b7100000000000000000000000000000000000000000000000000000000600052601160045260246000fd5b6000620006e1826200025e565b9150620006ee836200025e565b9250828201905080821115620007095762000708620006a5565b5b92915050565b6200071a816200025e565b82525050565b60006020820190506200073760008301846200070f565b92915050565b611507806200074d6000396000f3fe608060405234801561001057600080fd5b50600436106100b45760003560e01c80633950935111610071578063395093511461018f57806370a08231146101bf57806395d89b41146101ef578063a457c2d71461020d578063a9059cbb1461023d578063dd62ed3e1461026d576100b4565b806306fdde03146100b9578063095ea7b3146100d757806318160ddd1461010757806321860a051461012557806323b872dd14610141578063313ce56714610171575b600080fd5b6100c161029d565b6040516100ce9190610c68565b60405180910390f35b6100f160048036038101906100ec9190610d23565b61032f565b6040516100fe9190610d7e565b60405180910390f35b61010f610352565b60405161011c9190610da8565b60405180910390f35b61013f600480360381019061013a9190610dc3565b61035c565b005b61015b60048036038101906101569190610df0565b610491565b6040516101689190610d7e565b60405180910390f35b6101796104c0565b6040516101869190610e5f565b60405180910390f35b6101a960048036038101906101a49190610d23565b6104c9565b6040516101b69190610d7e565b60405180910390f35b6101d960048036038101906101d49190610dc3565b610500565b6040516101e69190610da8565b60405180910390f35b6101f7610548565b6040516102049190610c68565b60405180910390f35b61022760048036038101906102229190610d23565b6105da565b6040516102349190610d7e565b60405180910390f35b61025760048036038101906102529190610d23565b610651565b6040516102649190610d7e565b60405180910390f35b61028760048036038101906102829190610e7a565b610674565b6040516102949190610da8565b60405180910390f35b6060600380546102ac90610ee9565b80601f01602080910402602001604051908101604052809291908181526020018280546102d890610ee9565b80156103255780601f106102fa57610100808354040283529160200191610325565b820191906000526020600020905b81548152906001019060200180831161030857829003601f168201915b5050505050905090565b60008061033a6106fb565b9050610347818585610703565b600191505092915050565b6000600254905090565b600030905060006402540be40090508061037583610500565b116103b5576040517f08c379a00000000000000000000000000000000000000000000000000000000081526004016103ac90610f66565b60405180910390fd5b60006103c084610500565b1115610401576040517f08c379a00000000000000000000000000000000000000000000000000000000081526004016103f890610fd2565b60405180910390fd5b64174876e8008110610448576040517f08c379a000000000000000000000000000000000000000000000000000000000815260040161043f9061103e565b60405180910390fd5b6104538284836108cc565b7f8c32c568416fcf97be35ce5b27844cfddcd63a67a1a602c3595ba5dac38f303a838260405161048492919061106d565b60405180910390a1505050565b60008061049c6106fb565b90506104a9858285610b42565b6104b48585856108cc565b60019150509392505050565b60006012905090565b6000806104d46106fb565b90506104f58185856104e68589610674565b6104f091906110c5565b610703565b600191505092915050565b60008060008373ffffffffffffffffffffffffffffffffffffffff1673ffffffffffffffffffffffffffffffffffffffff168152602001908152602001600020549050919050565b60606004805461055790610ee9565b80601f016020809104026020016040519081016040528092919081815260200182805461058390610ee9565b80156105d05780601f106105a5576101008083540402835291602001916105d0565b820191906000526020600020905b8154815290600101906020018083116105b357829003601f168201915b5050505050905090565b6000806105e56106fb565b905060006105f38286610674565b905083811015610638576040517f08c379a000000000000000000000000000000000000000000000000000000000815260040161062f9061116b565b60405180910390fd5b6106458286868403610703565b60019250505092915050565b60008061065c6106fb565b90506106698185856108cc565b600191505092915050565b6000600160008473ffffffffffffffffffffffffffffffffffffffff1673ffffffffffffffffffffffffffffffffffffffff16815260200190815260200160002060008373ffffffffffffffffffffffffffffffffffffffff1673ffffffffffffffffffffffffffffffffffffffff16815260200190815260200160002054905092915050565b600033905090565b600073ffffffffffffffffffffffffffffffffffffffff168373ffffffffffffffffffffffffffffffffffffffff1603610772576040517f08c379a0000000000000000000000000000000000000000000000000000000008152600401610769906111fd565b60405180910390fd5b600073ffffffffffffffffffffffffffffffffffffffff168273ffffffffffffffffffffffffffffffffffffffff16036107e1576040517f08c379a00000000000000000000000000000000000000000000000000000000081526004016107d89061128f565b60405180910390fd5b80600160008573ffffffffffffffffffffffffffffffffffffffff1673ffffffffffffffffffffffffffffffffffffffff16815260200190815260200160002060008473ffffffffffffffffffffffffffffffffffffffff1673ffffffffffffffffffffffffffffffffffffffff168152602001908152602001600020819055508173ffffffffffffffffffffffffffffffffffffffff168373ffffffffffffffffffffffffffffffffffffffff167f8c5be1e5ebec7d5bd14f71427d1e84f3dd0314c0f7b2291e5b200ac8c7c3b925836040516108bf9190610da8565b60405180910390a3505050565b600073ffffffffffffffffffffffffffffffffffffffff168373ffffffffffffffffffffffffffffffffffffffff160361093b576040517f08c379a000000000000000000000000000000000000000000000000000000000815260040161093290611321565b60405180910390fd5b600073ffffffffffffffffffffffffffffffffffffffff168273ffffffffffffffffffffffffffffffffffffffff16036109aa576040517f08c379a00000000000000000000000000000000000000000000000000000000081526004016109a1906113b3565b60405180910390fd5b6109b5838383610bce565b60008060008573ffffffffffffffffffffffffffffffffffffffff1673ffffffffffffffffffffffffffffffffffffffff16815260200190815260200160002054905081811015610a3b576040517f08c379a0000000000000000000000000000000000000000000000000000000008152600401610a3290611445565b60405180910390fd5b8181036000808673ffffffffffffffffffffffffffffffffffffffff1673ffffffffffffffffffffffffffffffffffffffff16815260200190815260200160002081905550816000808573ffffffffffffffffffffffffffffffffffffffff1673ffffffffffffffffffffffffffffffffffffffff168152602001908152602001600020600082825401925050819055508273ffffffffffffffffffffffffffffffffffffffff168473ffffffffffffffffffffffffffffffffffffffff167fddf252ad1be2c89b69c2b068fc378daa952ba7f163c4a11628f55a4df523b3ef84604051610b299190610da8565b60405180910390a3610b3c848484610bd3565b50505050565b6000610b4e8484610674565b90507fffffffffffffffffffffffffffffffffffffffffffffffffffffffffffffffff8114610bc85781811015610bba576040517f08c379a0000000000000000000000000000000000000000000000000000000008152600401610bb1906114b1565b60405180910390fd5b610bc78484848403610703565b5b50505050565b505050565b505050565b600081519050919050565b600082825260208201905092915050565b60005b83811015610c12578082015181840152602081019050610bf7565b60008484015250505050565b6000601f19601f8301169050919050565b6000610c3a82610bd8565b610c448185610be3565b9350610c54818560208601610bf4565b610c5d81610c1e565b840191505092915050565b60006020820190508181036000830152610c828184610c2f565b905092915050565b600080fd5b600073ffffffffffffffffffffffffffffffffffffffff82169050919050565b6000610cba82610c8f565b9050919050565b610cca81610caf565b8114610cd557600080fd5b50565b600081359050610ce781610cc1565b92915050565b6000819050919050565b610d0081610ced565b8114610d0b57600080fd5b50565b600081359050610d1d81610cf7565b92915050565b60008060408385031215610d3a57610d39610c8a565b5b6000610d4885828601610cd8565b9250506020610d5985828601610d0e565b9150509250929050565b60008115159050919050565b610d7881610d63565b82525050565b6000602082019050610d936000830184610d6f565b92915050565b610da281610ced565b82525050565b6000602082019050610dbd6000830184610d99565b92915050565b600060208284031215610dd957610dd8610c8a565b5b6000610de784828501610cd8565b91505092915050565b600080600060608486031215610e0957610e08610c8a565b5b6000610e1786828701610cd8565b9350506020610e2886828701610cd8565b9250506040610e3986828701610d0e565b9150509250925092565b600060ff82169050919050565b610e5981610e43565b82525050565b6000602082019050610e746000830184610e50565b92915050565b60008060408385031215610e9157610e90610c8a565b5b6000610e9f85828601610cd8565b9250506020610eb085828601610cd8565b9150509250929050565b7f4e487b7100000000000000000000000000000000000000000000000000000000600052602260045260246000fd5b60006002820490506001821680610f0157607f821691505b602082108103610f1457610f13610eba565b5b50919050565b7f5265736572766520697320647279000000000000000000000000000000000000600082015250565b6000610f50600e83610be3565b9150610f5b82610f1a565b602082019050919050565b60006020820190508181036000830152610f7f81610f43565b9050919050565b7f52656365697665642049434f206265666f726500000000000000000000000000600082015250565b6000610fbc601383610be3565b9150610fc782610f86565b602082019050919050565b60006020820190508181036000830152610feb81610faf565b9050919050565b7f416d6f756e7420746f6f206d7563680000000000000000000000000000000000600082015250565b6000611028600f83610be3565b915061103382610ff2565b602082019050919050565b600060208201905081810360008301526110578161101b565b9050919050565b61106781610caf565b82525050565b6000604082019050611082600083018561105e565b61108f6020830184610d99565b9392505050565b7f4e487b7100000000000000000000000000000000000000000000000000000000600052601160045260246000fd5b60006110d082610ced565b91506110db83610ced565b92508282019050808211156110f3576110f2611096565b5b92915050565b7f45524332303a2064656372656173656420616c6c6f77616e63652062656c6f7760008201527f207a65726f000000000000000000000000000000000000000000000000000000602082015250565b6000611155602583610be3565b9150611160826110f9565b604082019050919050565b6000602082019050818103600083015261118481611148565b9050919050565b7f45524332303a20617070726f76652066726f6d20746865207a65726f2061646460008201527f7265737300000000000000000000000000000000000000000000000000000000602082015250565b60006111e7602483610be3565b91506111f28261118b565b604082019050919050565b60006020820190508181036000830152611216816111da565b9050919050565b7f45524332303a20617070726f766520746f20746865207a65726f20616464726560008201527f7373000000000000000000000000000000000000000000000000000000000000602082015250565b6000611279602283610be3565b91506112848261121d565b604082019050919050565b600060208201905081810360008301526112a88161126c565b9050919050565b7f45524332303a207472616e736665722066726f6d20746865207a65726f20616460008201527f6472657373000000000000000000000000000000000000000000000000000000602082015250565b600061130b602583610be3565b9150611316826112af565b604082019050919050565b6000602082019050818103600083015261133a816112fe565b9050919050565b7f45524332303a207472616e7366657220746f20746865207a65726f206164647260008201527f6573730000000000000000000000000000000000000000000000000000000000602082015250565b600061139d602383610be3565b91506113a882611341565b604082019050919050565b600060208201905081810360008301526113cc81611390565b9050919050565b7f45524332303a207472616e7366657220616d6f756e742065786365656473206260008201527f616c616e63650000000000000000000000000000000000000000000000000000602082015250565b600061142f602683610be3565b915061143a826113d3565b604082019050919050565b6000602082019050818103600083015261145e81611422565b9050919050565b7f45524332303a20696e73756666696369656e7420616c6c6f77616e6365000000600082015250565b600061149b601d83610be3565b91506114a682611465565b602082019050919050565b600060208201905081810360008301526114ca8161148e565b905091905056fea26469706673582212201f45bb7f5738ac55c9559b8d1b02676b5ff0c74d9693bba56d9069452799816364736f6c63430008110033",
  "devdoc": {
    "kind": "dev",
    "methods": {
      "allowance(address,address)": {
        "details": "See {IERC20-allowance}."
      },
      "approve(address,uint256)": {
        "details": "See {IERC20-approve}. NOTE: If `amount` is the maximum `uint256`, the allowance is not updated on `transferFrom`. This is semantically equivalent to an infinite approval. Requirements: - `spender` cannot be the zero address."
      },
      "balanceOf(address)": {
        "details": "See {IERC20-balanceOf}."
      },
      "decimals()": {
        "details": "Returns the number of decimals used to get its user representation. For example, if `decimals` equals `2`, a balance of `505` tokens should be displayed to a user as `5.05` (`505 / 10 ** 2`). Tokens usually opt for a value of 18, imitating the relationship between Ether and Wei. This is the default value returned by this function, unless it's overridden. NOTE: This information is only used for _display_ purposes: it in no way affects any of the arithmetic of the contract, including {IERC20-balanceOf} and {IERC20-transfer}."
      },
      "decreaseAllowance(address,uint256)": {
        "details": "Atomically decreases the allowance granted to `spender` by the caller. This is an alternative to {approve} that can be used as a mitigation for problems described in {IERC20-approve}. Emits an {Approval} event indicating the updated allowance. Requirements: - `spender` cannot be the zero address. - `spender` must have allowance for the caller of at least `subtractedValue`."
      },
      "increaseAllowance(address,uint256)": {
        "details": "Atomically increases the allowance granted to `spender` by the caller. This is an alternative to {approve} that can be used as a mitigation for problems described in {IERC20-approve}. Emits an {Approval} event indicating the updated allowance. Requirements: - `spender` cannot be the zero address."
      },
      "name()": {
        "details": "Returns the name of the token."
      },
      "symbol()": {
        "details": "Returns the symbol of the token, usually a shorter version of the name."
      },
      "totalSupply()": {
        "details": "See {IERC20-totalSupply}."
      },
      "transfer(address,uint256)": {
        "details": "See {IERC20-transfer}. Requirements: - `to` cannot be the zero address. - the caller must have a balance of at least `amount`."
      },
      "transferFrom(address,address,uint256)": {
        "details": "See {IERC20-transferFrom}. Emits an {Approval} event indicating the updated allowance. This is not required by the EIP. See the note at the beginning of {ERC20}. NOTE: Does not update the allowance if the current allowance is the maximum `uint256`. Requirements: - `from` and `to` cannot be the zero address. - `from` must have a balance of at least `amount`. - the caller must have allowance for ``from``'s tokens of at least `amount`."
      }
    },
    "version": 1
  },
  "userdoc": {
    "kind": "user",
    "methods": {},
    "version": 1
  },
  "storageLayout": {
    "storage": [
      {
        "astId": 15,
        "contract": "contracts/Stella.sol:Stella",
        "label": "_balances",
        "offset": 0,
        "slot": "0",
        "type": "t_mapping(t_address,t_uint256)"
      },
      {
        "astId": 21,
        "contract": "contracts/Stella.sol:Stella",
        "label": "_allowances",
        "offset": 0,
        "slot": "1",
        "type": "t_mapping(t_address,t_mapping(t_address,t_uint256))"
      },
      {
        "astId": 23,
        "contract": "contracts/Stella.sol:Stella",
        "label": "_totalSupply",
        "offset": 0,
        "slot": "2",
        "type": "t_uint256"
      },
      {
        "astId": 25,
        "contract": "contracts/Stella.sol:Stella",
        "label": "_name",
        "offset": 0,
        "slot": "3",
        "type": "t_string_storage"
      },
      {
        "astId": 27,
        "contract": "contracts/Stella.sol:Stella",
        "label": "_symbol",
        "offset": 0,
        "slot": "4",
        "type": "t_string_storage"
      }
    ],
    "types": {
      "t_address": {
        "encoding": "inplace",
        "label": "address",
        "numberOfBytes": "20"
      },
      "t_mapping(t_address,t_mapping(t_address,t_uint256))": {
        "encoding": "mapping",
        "key": "t_address",
        "label": "mapping(address => mapping(address => uint256))",
        "numberOfBytes": "32",
        "value": "t_mapping(t_address,t_uint256)"
      },
      "t_mapping(t_address,t_uint256)": {
        "encoding": "mapping",
        "key": "t_address",
        "label": "mapping(address => uint256)",
        "numberOfBytes": "32",
        "value": "t_uint256"
      },
      "t_string_storage": {
        "encoding": "bytes",
        "label": "string",
        "numberOfBytes": "32"
      },
      "t_uint256": {
        "encoding": "inplace",
        "label": "uint256",
        "numberOfBytes": "32"
      }
    }
  }
}