{
  "address": "0xCf7Ed3AccA5a467e9e704C703E8D87F634fB0Fc9",
  "abi": [
    {
      "inputs": [
        {
          "internalType": "uint256",
          "name": "initialSupply",
          "type": "uint256"
        },
        {
          "internalType": "uint64",
          "name": "_subscriptionID",
          "type": "uint64"
        },
        {
          "internalType": "address",
          "name": "vrfcoordinator",
          "type": "address"
        },
        {
          "internalType": "bytes32",
          "name": "gasLane",
          "type": "bytes32"
        },
        {
          "internalType": "uint32",
          "name": "callbackGasLimit",
          "type": "uint32"
        }
      ],
      "stateMutability": "payable",
      "type": "constructor"
    },
    {
      "inputs": [],
      "name": "InsufficientFunds",
      "type": "error"
    },
    {
      "inputs": [
        {
          "internalType": "address",
          "name": "have",
          "type": "address"
        },
        {
          "internalType": "address",
          "name": "want",
          "type": "address"
        }
      ],
      "name": "OnlyCoordinatorCanFulfill",
      "type": "error"
    },
    {
      "anonymous": false,
      "inputs": [
        {
          "indexed": true,
          "internalType": "address",
          "name": "to",
          "type": "address"
        },
        {
          "indexed": true,
          "internalType": "uint256",
          "name": "amount",
          "type": "uint256"
        }
      ],
      "name": "Airdrop",
      "type": "event"
    },
    {
      "anonymous": false,
      "inputs": [
        {
          "indexed": true,
          "internalType": "address",
          "name": "owner",
          "type": "address"
        },
        {
          "indexed": true,
          "internalType": "address",
          "name": "spender",
          "type": "address"
        },
        {
          "indexed": false,
          "internalType": "uint256",
          "name": "value",
          "type": "uint256"
        }
      ],
      "name": "Approval",
      "type": "event"
    },
    {
      "anonymous": false,
      "inputs": [
        {
          "indexed": true,
          "internalType": "address",
          "name": "to",
          "type": "address"
        },
        {
          "indexed": true,
          "internalType": "uint256",
          "name": "amount",
          "type": "uint256"
        }
      ],
      "name": "Lottery",
      "type": "event"
    },
    {
      "anonymous": false,
      "inputs": [
        {
          "indexed": true,
          "internalType": "address",
          "name": "from",
          "type": "address"
        },
        {
          "indexed": true,
          "internalType": "address",
          "name": "to",
          "type": "address"
        },
        {
          "indexed": false,
          "internalType": "uint256",
          "name": "value",
          "type": "uint256"
        }
      ],
      "name": "Transfer",
      "type": "event"
    },
    {
      "anonymous": false,
      "inputs": [
        {
          "indexed": true,
          "internalType": "address",
          "name": "to",
          "type": "address"
        },
        {
          "indexed": true,
          "internalType": "uint256",
          "name": "amount",
          "type": "uint256"
        }
      ],
      "name": "ethSwapforSTS",
      "type": "event"
    },
    {
      "anonymous": false,
      "inputs": [
        {
          "indexed": true,
          "internalType": "address",
          "name": "to",
          "type": "address"
        },
        {
          "indexed": true,
          "internalType": "uint256",
          "name": "amount",
          "type": "uint256"
        }
      ],
      "name": "stsSwapforETH",
      "type": "event"
    },
    {
      "inputs": [
        {
          "internalType": "address",
          "name": "to",
          "type": "address"
        }
      ],
      "name": "airdrop",
      "outputs": [],
      "stateMutability": "nonpayable",
      "type": "function"
    },
    {
      "inputs": [
        {
          "internalType": "address",
          "name": "owner",
          "type": "address"
        },
        {
          "internalType": "address",
          "name": "spender",
          "type": "address"
        }
      ],
      "name": "allowance",
      "outputs": [
        {
          "internalType": "uint256",
          "name": "",
          "type": "uint256"
        }
      ],
      "stateMutability": "view",
      "type": "function"
    },
    {
      "inputs": [
        {
          "internalType": "address",
          "name": "spender",
          "type": "address"
        },
        {
          "internalType": "uint256",
          "name": "amount",
          "type": "uint256"
        }
      ],
      "name": "approve",
      "outputs": [
        {
          "internalType": "bool",
          "name": "",
          "type": "bool"
        }
      ],
      "stateMutability": "nonpayable",
      "type": "function"
    },
    {
      "inputs": [
        {
          "internalType": "address",
          "name": "account",
          "type": "address"
        }
      ],
      "name": "balanceOf",
      "outputs": [
        {
          "internalType": "uint256",
          "name": "",
          "type": "uint256"
        }
      ],
      "stateMutability": "view",
      "type": "function"
    },
    {
      "inputs": [],
      "name": "decimals",
      "outputs": [
        {
          "internalType": "uint8",
          "name": "",
          "type": "uint8"
        }
      ],
      "stateMutability": "view",
      "type": "function"
    },
    {
      "inputs": [
        {
          "internalType": "address",
          "name": "spender",
          "type": "address"
        },
        {
          "internalType": "uint256",
          "name": "subtractedValue",
          "type": "uint256"
        }
      ],
      "name": "decreaseAllowance",
      "outputs": [
        {
          "internalType": "bool",
          "name": "",
          "type": "bool"
        }
      ],
      "stateMutability": "nonpayable",
      "type": "function"
    },
    {
      "inputs": [
        {
          "internalType": "address",
          "name": "spender",
          "type": "address"
        },
        {
          "internalType": "uint256",
          "name": "addedValue",
          "type": "uint256"
        }
      ],
      "name": "increaseAllowance",
      "outputs": [
        {
          "internalType": "bool",
          "name": "",
          "type": "bool"
        }
      ],
      "stateMutability": "nonpayable",
      "type": "function"
    },
    {
      "inputs": [],
      "name": "lottery",
      "outputs": [],
      "stateMutability": "nonpayable",
      "type": "function"
    },
    {
      "inputs": [],
      "name": "name",
      "outputs": [
        {
          "internalType": "string",
          "name": "",
          "type": "string"
        }
      ],
      "stateMutability": "view",
      "type": "function"
    },
    {
      "inputs": [
        {
          "internalType": "uint256",
          "name": "",
          "type": "uint256"
        }
      ],
      "name": "randomness",
      "outputs": [
        {
          "internalType": "bool",
          "name": "exists",
          "type": "bool"
        },
        {
          "internalType": "bool",
          "name": "fulfiled",
          "type": "bool"
        }
      ],
      "stateMutability": "view",
      "type": "function"
    },
    {
      "inputs": [
        {
          "internalType": "uint256",
          "name": "requestId",
          "type": "uint256"
        },
        {
          "internalType": "uint256[]",
          "name": "randomWords",
          "type": "uint256[]"
        }
      ],
      "name": "rawFulfillRandomWords",
      "outputs": [],
      "stateMutability": "nonpayable",
      "type": "function"
    },
    {
      "inputs": [
        {
          "internalType": "uint256",
          "name": "amount",
          "type": "uint256"
        }
      ],
      "name": "requestETHforSTS",
      "outputs": [
        {
          "internalType": "uint256",
          "name": "newEthTokenValue",
          "type": "uint256"
        }
      ],
      "stateMutability": "view",
      "type": "function"
    },
    {
      "inputs": [
        {
          "internalType": "uint256",
          "name": "amount",
          "type": "uint256"
        }
      ],
      "name": "requestSTSforETH",
      "outputs": [
        {
          "internalType": "uint256",
          "name": "STS",
          "type": "uint256"
        }
      ],
      "stateMutability": "view",
      "type": "function"
    },
    {
      "inputs": [
        {
          "internalType": "uint256",
          "name": "amount",
          "type": "uint256"
        }
      ],
      "name": "swapETHforExactToken",
      "outputs": [],
      "stateMutability": "payable",
      "type": "function"
    },
    {
      "inputs": [],
      "name": "swapETHforSTS",
      "outputs": [],
      "stateMutability": "payable",
      "type": "function"
    },
    {
      "inputs": [
        {
          "internalType": "uint256",
          "name": "amount",
          "type": "uint256"
        }
      ],
      "name": "swapSTSforETH",
      "outputs": [],
      "stateMutability": "nonpayable",
      "type": "function"
    },
    {
      "inputs": [],
      "name": "symbol",
      "outputs": [
        {
          "internalType": "string",
          "name": "",
          "type": "string"
        }
      ],
      "stateMutability": "view",
      "type": "function"
    },
    {
      "inputs": [],
      "name": "totalSupply",
      "outputs": [
        {
          "internalType": "uint256",
          "name": "",
          "type": "uint256"
        }
      ],
      "stateMutability": "view",
      "type": "function"
    },
    {
      "inputs": [
        {
          "internalType": "address",
          "name": "to",
          "type": "address"
        },
        {
          "internalType": "uint256",
          "name": "amount",
          "type": "uint256"
        }
      ],
      "name": "transfer",
      "outputs": [
        {
          "internalType": "bool",
          "name": "",
          "type": "bool"
        }
      ],
      "stateMutability": "nonpayable",
      "type": "function"
    },
    {
      "inputs": [
        {
          "internalType": "address",
          "name": "from",
          "type": "address"
        },
        {
          "internalType": "address",
          "name": "to",
          "type": "address"
        },
        {
          "internalType": "uint256",
          "name": "amount",
          "type": "uint256"
        }
      ],
      "name": "transferFrom",
      "outputs": [
        {
          "internalType": "bool",
          "name": "",
          "type": "bool"
        }
      ],
      "stateMutability": "nonpayable",
      "type": "function"
    }
  ],
  "transactionHash": "0x37eb790b01f3be72a812f7b2a0665834eec916bb11e8bebf4d61d1559b613d84",
  "args": [
    "50000000000000000000000",
    "1",
    "0x5FbDB2315678afecb367f032d93F642f64180aa3",
    "0x79d3d8832d904592c0bf9818b621522c988bb8b0c05cdc3b15aea1b6e8db0c15",
    "500000"
  ],
  "numDeployments": 1,
  "solcInputHash": "f04b9be0f014825b44ebb125e75cb0f9",
  "bytecode": "0x61014060405260405162002c9538038062002c9583398181016040528101906200002a91906200046f565b826040518060400160405280600681526020017f5354454c4c4100000000000000000000000000000000000000000000000000008152506040518060400160405280600381526020017f53545300000000000000000000000000000000000000000000000000000000008152508160039081620000a8919062000767565b508060049081620000ba919062000767565b5050508073ffffffffffffffffffffffffffffffffffffffff1660808173ffffffffffffffffffffffffffffffffffffffff1681525050508367ffffffffffffffff1660c08167ffffffffffffffff16815250508273ffffffffffffffffffffffffffffffffffffffff166101208173ffffffffffffffffffffffffffffffffffffffff16815250508160a081815250508063ffffffff1660e08163ffffffff168152505034856200016d91906200087d565b61010081815250506200018730866200019260201b60201c565b5050505050620009b4565b600073ffffffffffffffffffffffffffffffffffffffff168273ffffffffffffffffffffffffffffffffffffffff160362000204576040517f08c379a0000000000000000000000000000000000000000000000000000000008152600401620001fb9062000929565b60405180910390fd5b6200021860008383620002ff60201b60201c565b80600260008282546200022c91906200094b565b92505081905550806000808473ffffffffffffffffffffffffffffffffffffffff1673ffffffffffffffffffffffffffffffffffffffff168152602001908152602001600020600082825401925050819055508173ffffffffffffffffffffffffffffffffffffffff16600073ffffffffffffffffffffffffffffffffffffffff167fddf252ad1be2c89b69c2b068fc378daa952ba7f163c4a11628f55a4df523b3ef83604051620002df919062000997565b60405180910390a3620002fb600083836200030460201b60201c565b5050565b505050565b505050565b600080fd5b6000819050919050565b62000323816200030e565b81146200032f57600080fd5b50565b600081519050620003438162000318565b92915050565b600067ffffffffffffffff82169050919050565b620003688162000349565b81146200037457600080fd5b50565b60008151905062000388816200035d565b92915050565b600073ffffffffffffffffffffffffffffffffffffffff82169050919050565b6000620003bb826200038e565b9050919050565b620003cd81620003ae565b8114620003d957600080fd5b50565b600081519050620003ed81620003c2565b92915050565b6000819050919050565b6200040881620003f3565b81146200041457600080fd5b50565b6000815190506200042881620003fd565b92915050565b600063ffffffff82169050919050565b62000449816200042e565b81146200045557600080fd5b50565b60008151905062000469816200043e565b92915050565b600080600080600060a086880312156200048e576200048d62000309565b5b60006200049e8882890162000332565b9550506020620004b18882890162000377565b9450506040620004c488828901620003dc565b9350506060620004d78882890162000417565b9250506080620004ea8882890162000458565b9150509295509295909350565b600081519050919050565b7f4e487b7100000000000000000000000000000000000000000000000000000000600052604160045260246000fd5b7f4e487b7100000000000000000000000000000000000000000000000000000000600052602260045260246000fd5b600060028204905060018216806200057957607f821691505b6020821081036200058f576200058e62000531565b5b50919050565b60008190508160005260206000209050919050565b60006020601f8301049050919050565b600082821b905092915050565b600060088302620005f97fffffffffffffffffffffffffffffffffffffffffffffffffffffffffffffffff82620005ba565b620006058683620005ba565b95508019841693508086168417925050509392505050565b6000819050919050565b600062000648620006426200063c846200030e565b6200061d565b6200030e565b9050919050565b6000819050919050565b620006648362000627565b6200067c62000673826200064f565b848454620005c7565b825550505050565b600090565b6200069362000684565b620006a081848462000659565b505050565b5b81811015620006c857620006bc60008262000689565b600181019050620006a6565b5050565b601f8211156200071757620006e18162000595565b620006ec84620005aa565b81016020851015620006fc578190505b620007146200070b85620005aa565b830182620006a5565b50505b505050565b600082821c905092915050565b60006200073c600019846008026200071c565b1980831691505092915050565b600062000757838362000729565b9150826002028217905092915050565b6200077282620004f7565b67ffffffffffffffff8111156200078e576200078d62000502565b5b6200079a825462000560565b620007a7828285620006cc565b600060209050601f831160018114620007df5760008415620007ca578287015190505b620007d6858262000749565b86555062000846565b601f198416620007ef8662000595565b60005b828110156200081957848901518255600182019150602085019450602081019050620007f2565b8683101562000839578489015162000835601f89168262000729565b8355505b6001600288020188555050505b505050505050565b7f4e487b7100000000000000000000000000000000000000000000000000000000600052601160045260246000fd5b60006200088a826200030e565b915062000897836200030e565b9250828202620008a7816200030e565b91508282048414831517620008c157620008c06200084e565b5b5092915050565b600082825260208201905092915050565b7f45524332303a206d696e7420746f20746865207a65726f206164647265737300600082015250565b600062000911601f83620008c8565b91506200091e82620008d9565b602082019050919050565b60006020820190508181036000830152620009448162000902565b9050919050565b600062000958826200030e565b915062000965836200030e565b925082820190508082111562000980576200097f6200084e565b5b92915050565b62000991816200030e565b82525050565b6000602082019050620009ae600083018462000986565b92915050565b60805160a05160c05160e051610100516101205161228362000a1260003960006113190152600081816107d50152610a320152600061139901526000611376015260006113550152600081816105ea015261063e01526122836000f3fe60806040526004361061011f5760003560e01c806344cd5402116100a0578063a48f42e811610064578063a48f42e8146103f4578063a9059cbb14610431578063af0d0d201461046e578063ba13a57214610497578063dd62ed3e146104ae5761011f565b806344cd54021461032957806370a082311461034557806395d89b411461038257806396956e8d146103ad578063a457c2d7146103b75761011f565b806321860a05116100e757806321860a051461021e57806323b872dd146102475780632f8b9cba14610284578063313ce567146102c157806339509351146102ec5761011f565b806306fdde0314610124578063095ea7b31461014f57806318160ddd1461018c5780631b1d5b27146101b75780631fe543e3146101f5575b600080fd5b34801561013057600080fd5b506101396104eb565b6040516101469190611526565b60405180910390f35b34801561015b57600080fd5b50610176600480360381019061017191906115f0565b61057d565b604051610183919061164b565b60405180910390f35b34801561019857600080fd5b506101a16105a0565b6040516101ae9190611675565b60405180910390f35b3480156101c357600080fd5b506101de60048036038101906101d99190611690565b6105aa565b6040516101ec9291906116bd565b60405180910390f35b34801561020157600080fd5b5061021c6004803603810190610217919061182e565b6105e8565b005b34801561022a57600080fd5b506102456004803603810190610240919061188a565b6106a8565b005b34801561025357600080fd5b5061026e600480360381019061026991906118b7565b6107a1565b60405161027b919061164b565b60405180910390f35b34801561029057600080fd5b506102ab60048036038101906102a69190611690565b6107d0565b6040516102b89190611675565b60405180910390f35b3480156102cd57600080fd5b506102d661083a565b6040516102e39190611926565b60405180910390f35b3480156102f857600080fd5b50610313600480360381019061030e91906115f0565b610843565b604051610320919061164b565b60405180910390f35b610343600480360381019061033e9190611690565b61087a565b005b34801561035157600080fd5b5061036c6004803603810190610367919061188a565b61087d565b6040516103799190611675565b60405180910390f35b34801561038e57600080fd5b506103976108c5565b6040516103a49190611526565b60405180910390f35b6103b5610957565b005b3480156103c357600080fd5b506103de60048036038101906103d991906115f0565b6109b6565b6040516103eb919061164b565b60405180910390f35b34801561040057600080fd5b5061041b60048036038101906104169190611690565b610a2d565b6040516104289190611675565b60405180910390f35b34801561043d57600080fd5b50610458600480360381019061045391906115f0565b610a97565b604051610465919061164b565b60405180910390f35b34801561047a57600080fd5b5061049560048036038101906104909190611690565b610aba565b005b3480156104a357600080fd5b506104ac610bc8565b005b3480156104ba57600080fd5b506104d560048036038101906104d09190611941565b610d23565b6040516104e29190611675565b60405180910390f35b6060600380546104fa906119b0565b80601f0160208091040260200160405190810160405280929190818152602001828054610526906119b0565b80156105735780601f1061054857610100808354040283529160200191610573565b820191906000526020600020905b81548152906001019060200180831161055657829003601f168201915b5050505050905090565b600080610588610daa565b9050610595818585610db2565b600191505092915050565b6000600254905090565b60056020528060005260406000206000915090508060000160009054906101000a900460ff16908060000160019054906101000a900460ff16905082565b7f000000000000000000000000000000000000000000000000000000000000000073ffffffffffffffffffffffffffffffffffffffff163373ffffffffffffffffffffffffffffffffffffffff161461069a57337f00000000000000000000000000000000000000000000000000000000000000006040517f1cf993f40000000000000000000000000000000000000000000000000000000081526004016106919291906119f0565b60405180910390fd5b6106a48282610f7b565b5050565b600030905060006402540be4009050806106c18361087d565b11610701576040517f08c379a00000000000000000000000000000000000000000000000000000000081526004016106f890611a65565b60405180910390fd5b600061070c8461087d565b111561074d576040517f08c379a000000000000000000000000000000000000000000000000000000000815260040161074490611ad1565b60405180910390fd5b610758828483611013565b808373ffffffffffffffffffffffffffffffffffffffff167f8c32c568416fcf97be35ce5b27844cfddcd63a67a1a602c3595ba5dac38f303a60405160405180910390a3505050565b6000806107ac610daa565b90506107b9858285611289565b6107c4858585611013565b60019150509392505050565b6000807f00000000000000000000000000000000000000000000000000000000000000009050600047905060006108063061087d565b905060008583856108179190611b4f565b6108219190611b80565b9050808261082f9190611bb4565b945050505050919050565b60006012905090565b60008061084e610daa565b905061086f8185856108608589610d23565b61086a9190611b80565b610db2565b600191505092915050565b50565b60008060008373ffffffffffffffffffffffffffffffffffffffff1673ffffffffffffffffffffffffffffffffffffffff168152602001908152602001600020549050919050565b6060600480546108d4906119b0565b80601f0160208091040260200160405190810160405280929190818152602001828054610900906119b0565b801561094d5780601f106109225761010080835404028352916020019161094d565b820191906000526020600020905b81548152906001019060200180831161093057829003601f168201915b5050505050905090565b6000610962346107d0565b905061096f303383611013565b803373ffffffffffffffffffffffffffffffffffffffff167f7593751e5c59018fc6ec96371d225543723b833af71e780b3724952e98ef20e160405160405180910390a350565b6000806109c1610daa565b905060006109cf8286610d23565b905083811015610a14576040517f08c379a0000000000000000000000000000000000000000000000000000000008152600401610a0b90611c5a565b60405180910390fd5b610a218286868403610db2565b60019250505092915050565b6000807f0000000000000000000000000000000000000000000000000000000000000000905060004790506000610a633061087d565b90506000858285610a749190611b4f565b610a7e9190611b80565b90508083610a8c9190611bb4565b945050505050919050565b600080610aa2610daa565b9050610aaf818585611013565b600191505092915050565b80610ac43361087d565b1015610afc576040517f356680b700000000000000000000000000000000000000000000000000000000815260040160405180910390fd5b6000610b0782610a2d565b905060003373ffffffffffffffffffffffffffffffffffffffff1682604051610b2f90611cab565b60006040518083038185875af1925050503d8060008114610b6c576040519150601f19603f3d011682016040523d82523d6000602084013e610b71565b606091505b5050905080610b7f57600080fd5b813373ffffffffffffffffffffffffffffffffffffffff167f503a2df811d81f022e2e54117636a0b8a1c3a46edbeb6df7e78af610f526da2960405160405180910390a3505050565b6000610bd33361087d565b1115610c14576040517f08c379a0000000000000000000000000000000000000000000000000000000008152600401610c0b90611ad1565b60405180910390fd5b6000610c1e611315565b905060003090506005600083815260200190815260200160002060000160009054906101000a900460ff16610c88576040517f08c379a0000000000000000000000000000000000000000000000000000000008152600401610c7f90611d0c565b60405180910390fd5b600060056000848152602001908152602001600020600101600081548110610cb357610cb2611d2c565b5b9060005260206000200154633b9aca00610ccd9190611d5b565b9050610cda823383611013565b803373ffffffffffffffffffffffffffffffffffffffff167fbbfa80d5a54baf5590b0bbe42cd4d30dbf44307ed6875f699cd0ee8a7f9cd1d660405160405180910390a3505050565b6000600160008473ffffffffffffffffffffffffffffffffffffffff1673ffffffffffffffffffffffffffffffffffffffff16815260200190815260200160002060008373ffffffffffffffffffffffffffffffffffffffff1673ffffffffffffffffffffffffffffffffffffffff16815260200190815260200160002054905092915050565b600033905090565b600073ffffffffffffffffffffffffffffffffffffffff168373ffffffffffffffffffffffffffffffffffffffff1603610e21576040517f08c379a0000000000000000000000000000000000000000000000000000000008152600401610e1890611e0f565b60405180910390fd5b600073ffffffffffffffffffffffffffffffffffffffff168273ffffffffffffffffffffffffffffffffffffffff1603610e90576040517f08c379a0000000000000000000000000000000000000000000000000000000008152600401610e8790611ea1565b60405180910390fd5b80600160008573ffffffffffffffffffffffffffffffffffffffff1673ffffffffffffffffffffffffffffffffffffffff16815260200190815260200160002060008473ffffffffffffffffffffffffffffffffffffffff1673ffffffffffffffffffffffffffffffffffffffff168152602001908152602001600020819055508173ffffffffffffffffffffffffffffffffffffffff168373ffffffffffffffffffffffffffffffffffffffff167f8c5be1e5ebec7d5bd14f71427d1e84f3dd0314c0f7b2291e5b200ac8c7c3b92583604051610f6e9190611675565b60405180910390a3505050565b6040518060600160405280600115158152602001600015158152602001828152506005600084815260200190815260200160002060008201518160000160006101000a81548160ff02191690831515021790555060208201518160000160016101000a81548160ff021916908315150217905550604082015181600101908051906020019061100b92919061142c565b509050505050565b600073ffffffffffffffffffffffffffffffffffffffff168373ffffffffffffffffffffffffffffffffffffffff1603611082576040517f08c379a000000000000000000000000000000000000000000000000000000000815260040161107990611f33565b60405180910390fd5b600073ffffffffffffffffffffffffffffffffffffffff168273ffffffffffffffffffffffffffffffffffffffff16036110f1576040517f08c379a00000000000000000000000000000000000000000000000000000000081526004016110e890611fc5565b60405180910390fd5b6110fc838383611422565b60008060008573ffffffffffffffffffffffffffffffffffffffff1673ffffffffffffffffffffffffffffffffffffffff16815260200190815260200160002054905081811015611182576040517f08c379a000000000000000000000000000000000000000000000000000000000815260040161117990612057565b60405180910390fd5b8181036000808673ffffffffffffffffffffffffffffffffffffffff1673ffffffffffffffffffffffffffffffffffffffff16815260200190815260200160002081905550816000808573ffffffffffffffffffffffffffffffffffffffff1673ffffffffffffffffffffffffffffffffffffffff168152602001908152602001600020600082825401925050819055508273ffffffffffffffffffffffffffffffffffffffff168473ffffffffffffffffffffffffffffffffffffffff167fddf252ad1be2c89b69c2b068fc378daa952ba7f163c4a11628f55a4df523b3ef846040516112709190611675565b60405180910390a3611283848484611427565b50505050565b60006112958484610d23565b90507fffffffffffffffffffffffffffffffffffffffffffffffffffffffffffffffff811461130f5781811015611301576040517f08c379a00000000000000000000000000000000000000000000000000000000081526004016112f8906120c3565b60405180910390fd5b61130e8484848403610db2565b5b50505050565b60007f000000000000000000000000000000000000000000000000000000000000000073ffffffffffffffffffffffffffffffffffffffff16635d3b1d307f00000000000000000000000000000000000000000000000000000000000000007f000000000000000000000000000000000000000000000000000000000000000060037f000000000000000000000000000000000000000000000000000000000000000060016040518663ffffffff1660e01b81526004016113da9594939291906121b8565b6020604051808303816000875af11580156113f9573d6000803e3d6000fd5b505050506040513d601f19601f8201168201806040525081019061141d9190612220565b905090565b505050565b505050565b828054828255906000526020600020908101928215611468579160200282015b8281111561146757825182559160200191906001019061144c565b5b5090506114759190611479565b5090565b5b8082111561149257600081600090555060010161147a565b5090565b600081519050919050565b600082825260208201905092915050565b60005b838110156114d05780820151818401526020810190506114b5565b60008484015250505050565b6000601f19601f8301169050919050565b60006114f882611496565b61150281856114a1565b93506115128185602086016114b2565b61151b816114dc565b840191505092915050565b6000602082019050818103600083015261154081846114ed565b905092915050565b6000604051905090565b600080fd5b600080fd5b600073ffffffffffffffffffffffffffffffffffffffff82169050919050565b60006115878261155c565b9050919050565b6115978161157c565b81146115a257600080fd5b50565b6000813590506115b48161158e565b92915050565b6000819050919050565b6115cd816115ba565b81146115d857600080fd5b50565b6000813590506115ea816115c4565b92915050565b6000806040838503121561160757611606611552565b5b6000611615858286016115a5565b9250506020611626858286016115db565b9150509250929050565b60008115159050919050565b61164581611630565b82525050565b6000602082019050611660600083018461163c565b92915050565b61166f816115ba565b82525050565b600060208201905061168a6000830184611666565b92915050565b6000602082840312156116a6576116a5611552565b5b60006116b4848285016115db565b91505092915050565b60006040820190506116d2600083018561163c565b6116df602083018461163c565b9392505050565b600080fd5b7f4e487b7100000000000000000000000000000000000000000000000000000000600052604160045260246000fd5b611723826114dc565b810181811067ffffffffffffffff82111715611742576117416116eb565b5b80604052505050565b6000611755611548565b9050611761828261171a565b919050565b600067ffffffffffffffff821115611781576117806116eb565b5b602082029050602081019050919050565b600080fd5b60006117aa6117a584611766565b61174b565b905080838252602082019050602084028301858111156117cd576117cc611792565b5b835b818110156117f657806117e288826115db565b8452602084019350506020810190506117cf565b5050509392505050565b600082601f830112611815576118146116e6565b5b8135611825848260208601611797565b91505092915050565b6000806040838503121561184557611844611552565b5b6000611853858286016115db565b925050602083013567ffffffffffffffff81111561187457611873611557565b5b61188085828601611800565b9150509250929050565b6000602082840312156118a05761189f611552565b5b60006118ae848285016115a5565b91505092915050565b6000806000606084860312156118d0576118cf611552565b5b60006118de868287016115a5565b93505060206118ef868287016115a5565b9250506040611900868287016115db565b9150509250925092565b600060ff82169050919050565b6119208161190a565b82525050565b600060208201905061193b6000830184611917565b92915050565b6000806040838503121561195857611957611552565b5b6000611966858286016115a5565b9250506020611977858286016115a5565b9150509250929050565b7f4e487b7100000000000000000000000000000000000000000000000000000000600052602260045260246000fd5b600060028204905060018216806119c857607f821691505b6020821081036119db576119da611981565b5b50919050565b6119ea8161157c565b82525050565b6000604082019050611a0560008301856119e1565b611a1260208301846119e1565b9392505050565b7f5265736572766520697320647279000000000000000000000000000000000000600082015250565b6000611a4f600e836114a1565b9150611a5a82611a19565b602082019050919050565b60006020820190508181036000830152611a7e81611a42565b9050919050565b7f52656365697665642049434f206265666f726500000000000000000000000000600082015250565b6000611abb6013836114a1565b9150611ac682611a85565b602082019050919050565b60006020820190508181036000830152611aea81611aae565b9050919050565b7f4e487b7100000000000000000000000000000000000000000000000000000000600052601260045260246000fd5b7f4e487b7100000000000000000000000000000000000000000000000000000000600052601160045260246000fd5b6000611b5a826115ba565b9150611b65836115ba565b925082611b7557611b74611af1565b5b828204905092915050565b6000611b8b826115ba565b9150611b96836115ba565b9250828201905080821115611bae57611bad611b20565b5b92915050565b6000611bbf826115ba565b9150611bca836115ba565b9250828203905081811115611be257611be1611b20565b5b92915050565b7f45524332303a2064656372656173656420616c6c6f77616e63652062656c6f7760008201527f207a65726f000000000000000000000000000000000000000000000000000000602082015250565b6000611c446025836114a1565b9150611c4f82611be8565b604082019050919050565b60006020820190508181036000830152611c7381611c37565b9050919050565b600081905092915050565b50565b6000611c95600083611c7a565b9150611ca082611c85565b600082019050919050565b6000611cb682611c88565b9150819050919050565b7f506c656173652074727920616761696e204c6174657200000000000000000000600082015250565b6000611cf66016836114a1565b9150611d0182611cc0565b602082019050919050565b60006020820190508181036000830152611d2581611ce9565b9050919050565b7f4e487b7100000000000000000000000000000000000000000000000000000000600052603260045260246000fd5b6000611d66826115ba565b9150611d71836115ba565b9250828202611d7f816115ba565b91508282048414831517611d9657611d95611b20565b5b5092915050565b7f45524332303a20617070726f76652066726f6d20746865207a65726f2061646460008201527f7265737300000000000000000000000000000000000000000000000000000000602082015250565b6000611df96024836114a1565b9150611e0482611d9d565b604082019050919050565b60006020820190508181036000830152611e2881611dec565b9050919050565b7f45524332303a20617070726f766520746f20746865207a65726f20616464726560008201527f7373000000000000000000000000000000000000000000000000000000000000602082015250565b6000611e8b6022836114a1565b9150611e9682611e2f565b604082019050919050565b60006020820190508181036000830152611eba81611e7e565b9050919050565b7f45524332303a207472616e736665722066726f6d20746865207a65726f20616460008201527f6472657373000000000000000000000000000000000000000000000000000000602082015250565b6000611f1d6025836114a1565b9150611f2882611ec1565b604082019050919050565b60006020820190508181036000830152611f4c81611f10565b9050919050565b7f45524332303a207472616e7366657220746f20746865207a65726f206164647260008201527f6573730000000000000000000000000000000000000000000000000000000000602082015250565b6000611faf6023836114a1565b9150611fba82611f53565b604082019050919050565b60006020820190508181036000830152611fde81611fa2565b9050919050565b7f45524332303a207472616e7366657220616d6f756e742065786365656473206260008201527f616c616e63650000000000000000000000000000000000000000000000000000602082015250565b60006120416026836114a1565b915061204c82611fe5565b604082019050919050565b6000602082019050818103600083015261207081612034565b9050919050565b7f45524332303a20696e73756666696369656e7420616c6c6f77616e6365000000600082015250565b60006120ad601d836114a1565b91506120b882612077565b602082019050919050565b600060208201905081810360008301526120dc816120a0565b9050919050565b6000819050919050565b6120f6816120e3565b82525050565b600067ffffffffffffffff82169050919050565b612119816120fc565b82525050565b600061ffff82169050919050565b6000819050919050565b600061215261214d6121488461190a565b61212d565b61211f565b9050919050565b61216281612137565b82525050565b600063ffffffff82169050919050565b61218181612168565b82525050565b60006121a261219d6121988461190a565b61212d565b612168565b9050919050565b6121b281612187565b82525050565b600060a0820190506121cd60008301886120ed565b6121da6020830187612110565b6121e76040830186612159565b6121f46060830185612178565b61220160808301846121a9565b9695505050505050565b60008151905061221a816115c4565b92915050565b60006020828403121561223657612235611552565b5b60006122448482850161220b565b9150509291505056fea264697066735822122078322ba41e279b36d8d652cb486d891c6ee7388984057fdb2bddb280f04ec9b364736f6c63430008110033",
  "devdoc": {
    "author": "Buki",
    "details": "This contract implements chailink vrf",
    "kind": "dev",
    "methods": {
      "allowance(address,address)": {
        "details": "See {IERC20-allowance}."
      },
      "approve(address,uint256)": {
        "details": "See {IERC20-approve}. NOTE: If `amount` is the maximum `uint256`, the allowance is not updated on `transferFrom`. This is semantically equivalent to an infinite approval. Requirements: - `spender` cannot be the zero address."
      },
      "balanceOf(address)": {
        "details": "See {IERC20-balanceOf}."
      },
      "decimals()": {
        "details": "Returns the number of decimals used to get its user representation. For example, if `decimals` equals `2`, a balance of `505` tokens should be displayed to a user as `5.05` (`505 / 10 ** 2`). Tokens usually opt for a value of 18, imitating the relationship between Ether and Wei. This is the default value returned by this function, unless it's overridden. NOTE: This information is only used for _display_ purposes: it in no way affects any of the arithmetic of the contract, including {IERC20-balanceOf} and {IERC20-transfer}."
      },
      "decreaseAllowance(address,uint256)": {
        "details": "Atomically decreases the allowance granted to `spender` by the caller. This is an alternative to {approve} that can be used as a mitigation for problems described in {IERC20-approve}. Emits an {Approval} event indicating the updated allowance. Requirements: - `spender` cannot be the zero address. - `spender` must have allowance for the caller of at least `subtractedValue`."
      },
      "increaseAllowance(address,uint256)": {
        "details": "Atomically increases the allowance granted to `spender` by the caller. This is an alternative to {approve} that can be used as a mitigation for problems described in {IERC20-approve}. Emits an {Approval} event indicating the updated allowance. Requirements: - `spender` cannot be the zero address."
      },
      "name()": {
        "details": "Returns the name of the token."
      },
      "symbol()": {
        "details": "Returns the symbol of the token, usually a shorter version of the name."
      },
      "totalSupply()": {
        "details": "See {IERC20-totalSupply}."
      },
      "transfer(address,uint256)": {
        "details": "See {IERC20-transfer}. Requirements: - `to` cannot be the zero address. - the caller must have a balance of at least `amount`."
      },
      "transferFrom(address,address,uint256)": {
        "details": "See {IERC20-transferFrom}. Emits an {Approval} event indicating the updated allowance. This is not required by the EIP. See the note at the beginning of {ERC20}. NOTE: Does not update the allowance if the current allowance is the maximum `uint256`. Requirements: - `from` and `to` cannot be the zero address. - `from` must have a balance of at least `amount`. - the caller must have allowance for ``from``'s tokens of at least `amount`."
      }
    },
    "title": "A contract for Stella Token",
    "version": 1
  },
  "userdoc": {
    "kind": "user",
    "methods": {
      "requestSTSforETH(uint256)": {
        "notice": "implements a token swap, we assume ETH is an ERC20 TOKEN x*y = K "
      }
    },
    "notice": "The token is not live",
    "version": 1
  },
  "storageLayout": {
    "storage": [
      {
        "astId": 169,
        "contract": "contracts/Stella.sol:Stella",
        "label": "_balances",
        "offset": 0,
        "slot": "0",
        "type": "t_mapping(t_address,t_uint256)"
      },
      {
        "astId": 175,
        "contract": "contracts/Stella.sol:Stella",
        "label": "_allowances",
        "offset": 0,
        "slot": "1",
        "type": "t_mapping(t_address,t_mapping(t_address,t_uint256))"
      },
      {
        "astId": 177,
        "contract": "contracts/Stella.sol:Stella",
        "label": "_totalSupply",
        "offset": 0,
        "slot": "2",
        "type": "t_uint256"
      },
      {
        "astId": 179,
        "contract": "contracts/Stella.sol:Stella",
        "label": "_name",
        "offset": 0,
        "slot": "3",
        "type": "t_string_storage"
      },
      {
        "astId": 181,
        "contract": "contracts/Stella.sol:Stella",
        "label": "_symbol",
        "offset": 0,
        "slot": "4",
        "type": "t_string_storage"
      },
      {
        "astId": 908,
        "contract": "contracts/Stella.sol:Stella",
        "label": "randomness",
        "offset": 0,
        "slot": "5",
        "type": "t_mapping(t_uint256,t_struct(Status)903_storage)"
      }
    ],
    "types": {
      "t_address": {
        "encoding": "inplace",
        "label": "address",
        "numberOfBytes": "20"
      },
      "t_array(t_uint256)dyn_storage": {
        "base": "t_uint256",
        "encoding": "dynamic_array",
        "label": "uint256[]",
        "numberOfBytes": "32"
      },
      "t_bool": {
        "encoding": "inplace",
        "label": "bool",
        "numberOfBytes": "1"
      },
      "t_mapping(t_address,t_mapping(t_address,t_uint256))": {
        "encoding": "mapping",
        "key": "t_address",
        "label": "mapping(address => mapping(address => uint256))",
        "numberOfBytes": "32",
        "value": "t_mapping(t_address,t_uint256)"
      },
      "t_mapping(t_address,t_uint256)": {
        "encoding": "mapping",
        "key": "t_address",
        "label": "mapping(address => uint256)",
        "numberOfBytes": "32",
        "value": "t_uint256"
      },
      "t_mapping(t_uint256,t_struct(Status)903_storage)": {
        "encoding": "mapping",
        "key": "t_uint256",
        "label": "mapping(uint256 => struct Stella.Status)",
        "numberOfBytes": "32",
        "value": "t_struct(Status)903_storage"
      },
      "t_string_storage": {
        "encoding": "bytes",
        "label": "string",
        "numberOfBytes": "32"
      },
      "t_struct(Status)903_storage": {
        "encoding": "inplace",
        "label": "struct Stella.Status",
        "members": [
          {
            "astId": 897,
            "contract": "contracts/Stella.sol:Stella",
            "label": "exists",
            "offset": 0,
            "slot": "0",
            "type": "t_bool"
          },
          {
            "astId": 899,
            "contract": "contracts/Stella.sol:Stella",
            "label": "fulfiled",
            "offset": 1,
            "slot": "0",
            "type": "t_bool"
          },
          {
            "astId": 902,
            "contract": "contracts/Stella.sol:Stella",
            "label": "words",
            "offset": 0,
            "slot": "1",
            "type": "t_array(t_uint256)dyn_storage"
          }
        ],
        "numberOfBytes": "64"
      },
      "t_uint256": {
        "encoding": "inplace",
        "label": "uint256",
        "numberOfBytes": "32"
      }
    }
  }
}