{
  "abi": [
    {
      "inputs": [
        {
          "internalType": "uint256",
          "name": "initialSupply",
          "type": "uint256"
        }
      ],
      "stateMutability": "payable",
      "type": "constructor"
    },
    {
      "inputs": [],
      "name": "InsufficientFunds",
      "type": "error"
    },
    {
      "anonymous": false,
      "inputs": [
        {
          "indexed": true,
          "internalType": "address",
          "name": "to",
          "type": "address"
        },
        {
          "indexed": true,
          "internalType": "uint256",
          "name": "amount",
          "type": "uint256"
        }
      ],
      "name": "Airdrop",
      "type": "event"
    },
    {
      "anonymous": false,
      "inputs": [
        {
          "indexed": true,
          "internalType": "address",
          "name": "owner",
          "type": "address"
        },
        {
          "indexed": true,
          "internalType": "address",
          "name": "spender",
          "type": "address"
        },
        {
          "indexed": false,
          "internalType": "uint256",
          "name": "value",
          "type": "uint256"
        }
      ],
      "name": "Approval",
      "type": "event"
    },
    {
      "anonymous": false,
      "inputs": [
        {
          "indexed": true,
          "internalType": "address",
          "name": "to",
          "type": "address"
        },
        {
          "indexed": true,
          "internalType": "uint256",
          "name": "amount",
          "type": "uint256"
        }
      ],
      "name": "EthSwapforSTS",
      "type": "event"
    },
    {
      "anonymous": false,
      "inputs": [
        {
          "indexed": true,
          "internalType": "address",
          "name": "to",
          "type": "address"
        },
        {
          "indexed": true,
          "internalType": "uint256",
          "name": "amount",
          "type": "uint256"
        }
      ],
      "name": "EtsSwapforETH",
      "type": "event"
    },
    {
      "anonymous": false,
      "inputs": [
        {
          "indexed": true,
          "internalType": "address",
          "name": "t0",
          "type": "address"
        },
        {
          "indexed": true,
          "internalType": "uint256",
          "name": "tokenAmount",
          "type": "uint256"
        },
        {
          "indexed": true,
          "internalType": "uint256",
          "name": "ethAmount",
          "type": "uint256"
        }
      ],
      "name": "ExactTokenSwapped",
      "type": "event"
    },
    {
      "anonymous": false,
      "inputs": [
        {
          "indexed": true,
          "internalType": "address",
          "name": "to",
          "type": "address"
        },
        {
          "indexed": true,
          "internalType": "uint256",
          "name": "amount",
          "type": "uint256"
        }
      ],
      "name": "Lottery",
      "type": "event"
    },
    {
      "anonymous": false,
      "inputs": [
        {
          "indexed": true,
          "internalType": "address",
          "name": "from",
          "type": "address"
        },
        {
          "indexed": true,
          "internalType": "address",
          "name": "to",
          "type": "address"
        },
        {
          "indexed": false,
          "internalType": "uint256",
          "name": "value",
          "type": "uint256"
        }
      ],
      "name": "Transfer",
      "type": "event"
    },
    {
      "inputs": [
        {
          "internalType": "address",
          "name": "owner",
          "type": "address"
        },
        {
          "internalType": "address",
          "name": "spender",
          "type": "address"
        }
      ],
      "name": "allowance",
      "outputs": [
        {
          "internalType": "uint256",
          "name": "",
          "type": "uint256"
        }
      ],
      "stateMutability": "view",
      "type": "function"
    },
    {
      "inputs": [
        {
          "internalType": "address",
          "name": "spender",
          "type": "address"
        },
        {
          "internalType": "uint256",
          "name": "amount",
          "type": "uint256"
        }
      ],
      "name": "approve",
      "outputs": [
        {
          "internalType": "bool",
          "name": "",
          "type": "bool"
        }
      ],
      "stateMutability": "nonpayable",
      "type": "function"
    },
    {
      "inputs": [
        {
          "internalType": "address",
          "name": "account",
          "type": "address"
        }
      ],
      "name": "balanceOf",
      "outputs": [
        {
          "internalType": "uint256",
          "name": "",
          "type": "uint256"
        }
      ],
      "stateMutability": "view",
      "type": "function"
    },
    {
      "inputs": [],
      "name": "decimals",
      "outputs": [
        {
          "internalType": "uint8",
          "name": "",
          "type": "uint8"
        }
      ],
      "stateMutability": "view",
      "type": "function"
    },
    {
      "inputs": [
        {
          "internalType": "address",
          "name": "spender",
          "type": "address"
        },
        {
          "internalType": "uint256",
          "name": "subtractedValue",
          "type": "uint256"
        }
      ],
      "name": "decreaseAllowance",
      "outputs": [
        {
          "internalType": "bool",
          "name": "",
          "type": "bool"
        }
      ],
      "stateMutability": "nonpayable",
      "type": "function"
    },
    {
      "inputs": [
        {
          "internalType": "address",
          "name": "spender",
          "type": "address"
        },
        {
          "internalType": "uint256",
          "name": "addedValue",
          "type": "uint256"
        }
      ],
      "name": "increaseAllowance",
      "outputs": [
        {
          "internalType": "bool",
          "name": "",
          "type": "bool"
        }
      ],
      "stateMutability": "nonpayable",
      "type": "function"
    },
    {
      "inputs": [],
      "name": "name",
      "outputs": [
        {
          "internalType": "string",
          "name": "",
          "type": "string"
        }
      ],
      "stateMutability": "view",
      "type": "function"
    },
    {
      "inputs": [
        {
          "internalType": "uint256",
          "name": "amount",
          "type": "uint256"
        }
      ],
      "name": "requestETHforSTS",
      "outputs": [
        {
          "internalType": "uint256",
          "name": "newEthTokenValue",
          "type": "uint256"
        }
      ],
      "stateMutability": "view",
      "type": "function"
    },
    {
      "inputs": [
        {
          "internalType": "uint256",
          "name": "amount",
          "type": "uint256"
        }
      ],
      "name": "requestSTSforETH",
      "outputs": [
        {
          "internalType": "uint256",
          "name": "sts",
          "type": "uint256"
        }
      ],
      "stateMutability": "view",
      "type": "function"
    },
    {
      "inputs": [
        {
          "internalType": "uint256",
          "name": "amount",
          "type": "uint256"
        }
      ],
      "name": "swapETHforExactToken",
      "outputs": [],
      "stateMutability": "payable",
      "type": "function"
    },
    {
      "inputs": [],
      "name": "swapETHforSTS",
      "outputs": [],
      "stateMutability": "payable",
      "type": "function"
    },
    {
      "inputs": [
        {
          "internalType": "uint256",
          "name": "amount",
          "type": "uint256"
        }
      ],
      "name": "swapSTSforETH",
      "outputs": [],
      "stateMutability": "nonpayable",
      "type": "function"
    },
    {
      "inputs": [],
      "name": "symbol",
      "outputs": [
        {
          "internalType": "string",
          "name": "",
          "type": "string"
        }
      ],
      "stateMutability": "view",
      "type": "function"
    },
    {
      "inputs": [],
      "name": "totalSupply",
      "outputs": [
        {
          "internalType": "uint256",
          "name": "",
          "type": "uint256"
        }
      ],
      "stateMutability": "view",
      "type": "function"
    },
    {
      "inputs": [
        {
          "internalType": "address",
          "name": "to",
          "type": "address"
        },
        {
          "internalType": "uint256",
          "name": "amount",
          "type": "uint256"
        }
      ],
      "name": "transfer",
      "outputs": [
        {
          "internalType": "bool",
          "name": "",
          "type": "bool"
        }
      ],
      "stateMutability": "nonpayable",
      "type": "function"
    },
    {
      "inputs": [
        {
          "internalType": "address",
          "name": "from",
          "type": "address"
        },
        {
          "internalType": "address",
          "name": "to",
          "type": "address"
        },
        {
          "internalType": "uint256",
          "name": "amount",
          "type": "uint256"
        }
      ],
      "name": "transferFrom",
      "outputs": [
        {
          "internalType": "bool",
          "name": "",
          "type": "bool"
        }
      ],
      "stateMutability": "nonpayable",
      "type": "function"
    },
    {
      "stateMutability": "payable",
      "type": "receive"
    }
  ],
  "bytecode": {
    "object": "0x60a0604052604051620010e8380380620010e883398101604081905262000026916200018a565b604051806040016040528060068152602001655354454c4c4160d01b8152506040518060400160405280600381526020016253545360e81b815250816003908162000072919062000248565b50600462000081828262000248565b50506001600555506200009534826200032a565b620000a990670de0b6b3a76400006200032a565b608052620000b83082620000bf565b5062000360565b6001600160a01b0382166200011a5760405162461bcd60e51b815260206004820152601f60248201527f45524332303a206d696e7420746f20746865207a65726f206164647265737300604482015260640160405180910390fd5b80600260008282546200012e91906200034a565b90915550506001600160a01b038216600081815260208181526040808320805486019055518481527fddf252ad1be2c89b69c2b068fc378daa952ba7f163c4a11628f55a4df523b3ef910160405180910390a35050565b505050565b6000602082840312156200019d57600080fd5b5051919050565b634e487b7160e01b600052604160045260246000fd5b600181811c90821680620001cf57607f821691505b602082108103620001f057634e487b7160e01b600052602260045260246000fd5b50919050565b601f8211156200018557600081815260208120601f850160051c810160208610156200021f5750805b601f850160051c820191505b8181101562000240578281556001016200022b565b505050505050565b81516001600160401b03811115620002645762000264620001a4565b6200027c81620002758454620001ba565b84620001f6565b602080601f831160018114620002b457600084156200029b5750858301515b600019600386901b1c1916600185901b17855562000240565b600085815260208120601f198616915b82811015620002e557888601518255948401946001909101908401620002c4565b5085821015620003045787850151600019600388901b60f8161c191681555b5050505050600190811b01905550565b634e487b7160e01b600052601160045260246000fd5b808202811582820484141762000344576200034462000314565b92915050565b8082018082111562000344576200034462000314565b608051610d6562000383600039600081816104ad01526106a10152610d656000f3fe6080604052600436106100f75760003560e01c806370a082311161008a578063a48f42e811610059578063a48f42e8146102ed578063a9059cbb1461030d578063af0d0d201461032d578063dd62ed3e1461034d57600080fd5b806370a082311461027a57806395d89b41146102b057806396956e8d146102c5578063a457c2d7146102cd57600080fd5b80632f8b9cba116100c65780632f8b9cba1461020b578063313ce5671461022b578063395093511461024757806344cd54021461026757600080fd5b806306fdde0314610171578063095ea7b31461019c57806318160ddd146101cc57806323b872dd146101eb57600080fd5b3661016c5761010461036d565b60405134906000908190819084908281818185825af1925050503d806000811461014a576040519150601f19603f3d011682016040523d82523d6000602084013e61014f565b606091505b505090508061015d57600080fd5b50505061016a6001600555565b005b600080fd5b34801561017d57600080fd5b506101866103cb565b6040516101939190610b42565b60405180910390f35b3480156101a857600080fd5b506101bc6101b7366004610bac565b61045d565b6040519015158152602001610193565b3480156101d857600080fd5b506002545b604051908152602001610193565b3480156101f757600080fd5b506101bc610206366004610bd6565b610477565b34801561021757600080fd5b506101dd610226366004610c12565b61049b565b34801561023757600080fd5b5060405160128152602001610193565b34801561025357600080fd5b506101bc610262366004610bac565b61050d565b61016a610275366004610c12565b61052f565b34801561028657600080fd5b506101dd610295366004610c2b565b6001600160a01b031660009081526020819052604090205490565b3480156102bc57600080fd5b506101866105bd565b61016a6105cc565b3480156102d957600080fd5b506101bc6102e8366004610bac565b610614565b3480156102f957600080fd5b506101dd610308366004610c12565b61068f565b34801561031957600080fd5b506101bc610328366004610bac565b6106f7565b34801561033957600080fd5b5061016a610348366004610c12565b610705565b34801561035957600080fd5b506101dd610368366004610c4d565b6107d5565b6002600554036103c45760405162461bcd60e51b815260206004820152601f60248201527f5265656e7472616e637947756172643a207265656e7472616e742063616c6c0060448201526064015b60405180910390fd5b6002600555565b6060600380546103da90610c80565b80601f016020809104026020016040519081016040528092919081815260200182805461040690610c80565b80156104535780601f1061042857610100808354040283529160200191610453565b820191906000526020600020905b81548152906001019060200180831161043657829003601f168201915b5050505050905090565b60003361046b818585610800565b60019150505b92915050565b600033610485858285610924565b61049085858561099e565b506001949350505050565b306000908152602081905260408120547f000000000000000000000000000000000000000000000000000000000000000090479060006104db8684610cd0565b6104ed90670de0b6b3a7640000610ce3565b6104f79085610cfa565b90506105038183610d1c565b9695505050505050565b60003361046b81858561052083836107d5565b61052a9190610cd0565b610800565b600061053a8261068f565b905080341461057f5760405162461bcd60e51b8152602060048201526011602482015270141c9a58d9481a185cc810da185b99d959607a1b60448201526064016103bb565b61058a30338461099e565b6040513490839033907fa7195f334babde7a5c77fca590e1fa4ca0bd3606b1cc523d4411f17e265bfc5690600090a45050565b6060600480546103da90610c80565b60006105d73461049b565b90506105e430338361099e565b604051819033907f23e3a3076a9da483228cff3c870231ccda759ed4eff5a933fc61f3dd1e17d4c990600090a350565b6000338161062282866107d5565b9050838110156106825760405162461bcd60e51b815260206004820152602560248201527f45524332303a2064656372656173656420616c6c6f77616e63652062656c6f77604482015264207a65726f60d81b60648201526084016103bb565b6104908286868403610800565b306000908152602081905260408120547f000000000000000000000000000000000000000000000000000000000000000090479060006106cf8683610cd0565b6106e190670de0b6b3a7640000610ce3565b6106eb9085610cfa565b90506105038184610d1c565b60003361046b81858561099e565b336000908152602081905260409020548111156107355760405163356680b760e01b815260040160405180910390fd5b61074033308361099e565b600061074b8261068f565b604051909150600090339083908381818185875af1925050503d8060008114610790576040519150601f19603f3d011682016040523d82523d6000602084013e610795565b606091505b50509050806107a357600080fd5b604051829033907f0e03863a5fbbe218b93a1a5d51035deda49302fe11e096a1da4f8ecd198755c790600090a3505050565b6001600160a01b03918216600090815260016020908152604080832093909416825291909152205490565b6001600160a01b0383166108625760405162461bcd60e51b8152602060048201526024808201527f45524332303a20617070726f76652066726f6d20746865207a65726f206164646044820152637265737360e01b60648201526084016103bb565b6001600160a01b0382166108c35760405162461bcd60e51b815260206004820152602260248201527f45524332303a20617070726f766520746f20746865207a65726f206164647265604482015261737360f01b60648201526084016103bb565b6001600160a01b0383811660008181526001602090815260408083209487168084529482529182902085905590518481527f8c5be1e5ebec7d5bd14f71427d1e84f3dd0314c0f7b2291e5b200ac8c7c3b925910160405180910390a3505050565b600061093084846107d5565b90506000198114610998578181101561098b5760405162461bcd60e51b815260206004820152601d60248201527f45524332303a20696e73756666696369656e7420616c6c6f77616e636500000060448201526064016103bb565b6109988484848403610800565b50505050565b6001600160a01b038316610a025760405162461bcd60e51b815260206004820152602560248201527f45524332303a207472616e736665722066726f6d20746865207a65726f206164604482015264647265737360d81b60648201526084016103bb565b6001600160a01b038216610a645760405162461bcd60e51b815260206004820152602360248201527f45524332303a207472616e7366657220746f20746865207a65726f206164647260448201526265737360e81b60648201526084016103bb565b6001600160a01b03831660009081526020819052604090205481811015610adc5760405162461bcd60e51b815260206004820152602660248201527f45524332303a207472616e7366657220616d6f756e7420657863656564732062604482015265616c616e636560d01b60648201526084016103bb565b6001600160a01b03848116600081815260208181526040808320878703905593871680835291849020805487019055925185815290927fddf252ad1be2c89b69c2b068fc378daa952ba7f163c4a11628f55a4df523b3ef910160405180910390a3610998565b600060208083528351808285015260005b81811015610b6f57858101830151858201604001528201610b53565b506000604082860101526040601f19601f8301168501019250505092915050565b80356001600160a01b0381168114610ba757600080fd5b919050565b60008060408385031215610bbf57600080fd5b610bc883610b90565b946020939093013593505050565b600080600060608486031215610beb57600080fd5b610bf484610b90565b9250610c0260208501610b90565b9150604084013590509250925092565b600060208284031215610c2457600080fd5b5035919050565b600060208284031215610c3d57600080fd5b610c4682610b90565b9392505050565b60008060408385031215610c6057600080fd5b610c6983610b90565b9150610c7760208401610b90565b90509250929050565b600181811c90821680610c9457607f821691505b602082108103610cb457634e487b7160e01b600052602260045260246000fd5b50919050565b634e487b7160e01b600052601160045260246000fd5b8082018082111561047157610471610cba565b808202811582820484141761047157610471610cba565b600082610d1757634e487b7160e01b600052601260045260246000fd5b500490565b8181038181111561047157610471610cba56fea2646970667358221220da2ef18c9ccf50028c1f7b89e0e7fcd4323d26b2ab1e03e871757522ff3beedd64736f6c63430008150033",
    "linkReferences": {}
  },
  "methodIdentifiers": {
    "allowance(address,address)": "dd62ed3e",
    "approve(address,uint256)": "095ea7b3",
    "balanceOf(address)": "70a08231",
    "decimals()": "313ce567",
    "decreaseAllowance(address,uint256)": "a457c2d7",
    "increaseAllowance(address,uint256)": "39509351",
    "name()": "06fdde03",
    "requestETHforSTS(uint256)": "a48f42e8",
    "requestSTSforETH(uint256)": "2f8b9cba",
    "swapETHforExactToken(uint256)": "44cd5402",
    "swapETHforSTS()": "96956e8d",
    "swapSTSforETH(uint256)": "af0d0d20",
    "symbol()": "95d89b41",
    "totalSupply()": "18160ddd",
    "transfer(address,uint256)": "a9059cbb",
    "transferFrom(address,address,uint256)": "23b872dd"
  },
  "id": 5
}