{
  "abi": [
    {
      "inputs": [
        {
          "internalType": "uint256",
          "name": "initialSupply",
          "type": "uint256"
        }
      ],
      "stateMutability": "payable",
      "type": "constructor"
    },
    {
      "inputs": [],
      "name": "InsufficientFunds",
      "type": "error"
    },
    {
      "anonymous": false,
      "inputs": [
        {
          "indexed": true,
          "internalType": "address",
          "name": "to",
          "type": "address"
        },
        {
          "indexed": true,
          "internalType": "uint256",
          "name": "amount",
          "type": "uint256"
        }
      ],
      "name": "Airdrop",
      "type": "event"
    },
    {
      "anonymous": false,
      "inputs": [
        {
          "indexed": true,
          "internalType": "address",
          "name": "owner",
          "type": "address"
        },
        {
          "indexed": true,
          "internalType": "address",
          "name": "spender",
          "type": "address"
        },
        {
          "indexed": false,
          "internalType": "uint256",
          "name": "value",
          "type": "uint256"
        }
      ],
      "name": "Approval",
      "type": "event"
    },
    {
      "anonymous": false,
      "inputs": [
        {
          "indexed": true,
          "internalType": "address",
          "name": "to",
          "type": "address"
        },
        {
          "indexed": true,
          "internalType": "uint256",
          "name": "amount",
          "type": "uint256"
        }
      ],
      "name": "Lottery",
      "type": "event"
    },
    {
      "anonymous": false,
      "inputs": [
        {
          "indexed": true,
          "internalType": "address",
          "name": "from",
          "type": "address"
        },
        {
          "indexed": true,
          "internalType": "address",
          "name": "to",
          "type": "address"
        },
        {
          "indexed": false,
          "internalType": "uint256",
          "name": "value",
          "type": "uint256"
        }
      ],
      "name": "Transfer",
      "type": "event"
    },
    {
      "anonymous": false,
      "inputs": [
        {
          "indexed": true,
          "internalType": "address",
          "name": "to",
          "type": "address"
        },
        {
          "indexed": true,
          "internalType": "uint256",
          "name": "amount",
          "type": "uint256"
        }
      ],
      "name": "ethSwapforSTS",
      "type": "event"
    },
    {
      "anonymous": false,
      "inputs": [
        {
          "indexed": true,
          "internalType": "address",
          "name": "t0",
          "type": "address"
        },
        {
          "indexed": true,
          "internalType": "uint256",
          "name": "tokenAmount",
          "type": "uint256"
        },
        {
          "indexed": true,
          "internalType": "uint256",
          "name": "EthAmount",
          "type": "uint256"
        }
      ],
      "name": "exactTokenSwapped",
      "type": "event"
    },
    {
      "anonymous": false,
      "inputs": [
        {
          "indexed": true,
          "internalType": "address",
          "name": "to",
          "type": "address"
        },
        {
          "indexed": true,
          "internalType": "uint256",
          "name": "amount",
          "type": "uint256"
        }
      ],
      "name": "stsSwapforETH",
      "type": "event"
    },
    {
      "inputs": [
        {
          "internalType": "address",
          "name": "owner",
          "type": "address"
        },
        {
          "internalType": "address",
          "name": "spender",
          "type": "address"
        }
      ],
      "name": "allowance",
      "outputs": [
        {
          "internalType": "uint256",
          "name": "",
          "type": "uint256"
        }
      ],
      "stateMutability": "view",
      "type": "function"
    },
    {
      "inputs": [
        {
          "internalType": "address",
          "name": "spender",
          "type": "address"
        },
        {
          "internalType": "uint256",
          "name": "amount",
          "type": "uint256"
        }
      ],
      "name": "approve",
      "outputs": [
        {
          "internalType": "bool",
          "name": "",
          "type": "bool"
        }
      ],
      "stateMutability": "nonpayable",
      "type": "function"
    },
    {
      "inputs": [
        {
          "internalType": "address",
          "name": "account",
          "type": "address"
        }
      ],
      "name": "balanceOf",
      "outputs": [
        {
          "internalType": "uint256",
          "name": "",
          "type": "uint256"
        }
      ],
      "stateMutability": "view",
      "type": "function"
    },
    {
      "inputs": [],
      "name": "decimals",
      "outputs": [
        {
          "internalType": "uint8",
          "name": "",
          "type": "uint8"
        }
      ],
      "stateMutability": "view",
      "type": "function"
    },
    {
      "inputs": [
        {
          "internalType": "address",
          "name": "spender",
          "type": "address"
        },
        {
          "internalType": "uint256",
          "name": "subtractedValue",
          "type": "uint256"
        }
      ],
      "name": "decreaseAllowance",
      "outputs": [
        {
          "internalType": "bool",
          "name": "",
          "type": "bool"
        }
      ],
      "stateMutability": "nonpayable",
      "type": "function"
    },
    {
      "inputs": [
        {
          "internalType": "address",
          "name": "spender",
          "type": "address"
        },
        {
          "internalType": "uint256",
          "name": "addedValue",
          "type": "uint256"
        }
      ],
      "name": "increaseAllowance",
      "outputs": [
        {
          "internalType": "bool",
          "name": "",
          "type": "bool"
        }
      ],
      "stateMutability": "nonpayable",
      "type": "function"
    },
    {
      "inputs": [],
      "name": "name",
      "outputs": [
        {
          "internalType": "string",
          "name": "",
          "type": "string"
        }
      ],
      "stateMutability": "view",
      "type": "function"
    },
    {
      "inputs": [
        {
          "internalType": "uint256",
          "name": "amount",
          "type": "uint256"
        }
      ],
      "name": "requestETHforSTS",
      "outputs": [
        {
          "internalType": "uint256",
          "name": "newEthTokenValue",
          "type": "uint256"
        }
      ],
      "stateMutability": "view",
      "type": "function"
    },
    {
      "inputs": [
        {
          "internalType": "uint256",
          "name": "amount",
          "type": "uint256"
        }
      ],
      "name": "swapETHforExactToken",
      "outputs": [],
      "stateMutability": "payable",
      "type": "function"
    },
    {
      "inputs": [],
      "name": "swapETHforSTS",
      "outputs": [],
      "stateMutability": "payable",
      "type": "function"
    },
    {
      "inputs": [
        {
          "internalType": "uint256",
          "name": "amount",
          "type": "uint256"
        }
      ],
      "name": "swapSTSforETH",
      "outputs": [],
      "stateMutability": "nonpayable",
      "type": "function"
    },
    {
      "inputs": [],
      "name": "symbol",
      "outputs": [
        {
          "internalType": "string",
          "name": "",
          "type": "string"
        }
      ],
      "stateMutability": "view",
      "type": "function"
    },
    {
      "inputs": [],
      "name": "totalSupply",
      "outputs": [
        {
          "internalType": "uint256",
          "name": "",
          "type": "uint256"
        }
      ],
      "stateMutability": "view",
      "type": "function"
    },
    {
      "inputs": [
        {
          "internalType": "address",
          "name": "to",
          "type": "address"
        },
        {
          "internalType": "uint256",
          "name": "amount",
          "type": "uint256"
        }
      ],
      "name": "transfer",
      "outputs": [
        {
          "internalType": "bool",
          "name": "",
          "type": "bool"
        }
      ],
      "stateMutability": "nonpayable",
      "type": "function"
    },
    {
      "inputs": [
        {
          "internalType": "address",
          "name": "from",
          "type": "address"
        },
        {
          "internalType": "address",
          "name": "to",
          "type": "address"
        },
        {
          "internalType": "uint256",
          "name": "amount",
          "type": "uint256"
        }
      ],
      "name": "transferFrom",
      "outputs": [
        {
          "internalType": "bool",
          "name": "",
          "type": "bool"
        }
      ],
      "stateMutability": "nonpayable",
      "type": "function"
    },
    {
      "stateMutability": "payable",
      "type": "receive"
    }
  ],
  "bytecode": {
    "object": "0x60a0604052604051620010b2380380620010b283398101604081905262000026916200018a565b604051806040016040528060068152602001655354454c4c4160d01b8152506040518060400160405280600381526020016253545360e81b815250816003908162000072919062000248565b50600462000081828262000248565b50506001600555506200009534826200032a565b620000a990670de0b6b3a76400006200032a565b608052620000b83082620000bf565b5062000360565b6001600160a01b0382166200011a5760405162461bcd60e51b815260206004820152601f60248201527f45524332303a206d696e7420746f20746865207a65726f206164647265737300604482015260640160405180910390fd5b80600260008282546200012e91906200034a565b90915550506001600160a01b038216600081815260208181526040808320805486019055518481527fddf252ad1be2c89b69c2b068fc378daa952ba7f163c4a11628f55a4df523b3ef910160405180910390a35050565b505050565b6000602082840312156200019d57600080fd5b5051919050565b634e487b7160e01b600052604160045260246000fd5b600181811c90821680620001cf57607f821691505b602082108103620001f057634e487b7160e01b600052602260045260246000fd5b50919050565b601f8211156200018557600081815260208120601f850160051c810160208610156200021f5750805b601f850160051c820191505b8181101562000240578281556001016200022b565b505050505050565b81516001600160401b03811115620002645762000264620001a4565b6200027c81620002758454620001ba565b84620001f6565b602080601f831160018114620002b457600084156200029b5750858301515b600019600386901b1c1916600185901b17855562000240565b600085815260208120601f198616915b82811015620002e557888601518255948401946001909101908401620002c4565b5085821015620003045787850151600019600388901b60f8161c191681555b5050505050600190811b01905550565b634e487b7160e01b600052601160045260246000fd5b808202811582820484141762000344576200034462000314565b92915050565b8082018082111562000344576200034462000314565b608051610d2f62000383600039600081816106040152610ab60152610d2f6000f3fe6080604052600436106100ec5760003560e01c806370a082311161008a578063a48f42e811610059578063a48f42e8146102c2578063a9059cbb146102e2578063af0d0d2014610302578063dd62ed3e1461032257600080fd5b806370a082311461024f57806395d89b411461028557806396956e8d1461029a578063a457c2d7146102a257600080fd5b806323b872dd116100c657806323b872dd146101e0578063313ce56714610200578063395093511461021c57806344cd54021461023c57600080fd5b806306fdde0314610166578063095ea7b31461019157806318160ddd146101c157600080fd5b36610161576100f9610342565b60405134906000908190819084908281818185825af1925050503d806000811461013f576040519150601f19603f3d011682016040523d82523d6000602084013e610144565b606091505b505090508061015257600080fd5b50505061015f6001600555565b005b600080fd5b34801561017257600080fd5b5061017b6103a0565b6040516101889190610b0c565b60405180910390f35b34801561019d57600080fd5b506101b16101ac366004610b76565b610432565b6040519015158152602001610188565b3480156101cd57600080fd5b506002545b604051908152602001610188565b3480156101ec57600080fd5b506101b16101fb366004610ba0565b61044c565b34801561020c57600080fd5b5060405160128152602001610188565b34801561022857600080fd5b506101b1610237366004610b76565b610470565b61015f61024a366004610bdc565b610492565b34801561025b57600080fd5b506101d261026a366004610bf5565b6001600160a01b031660009081526020819052604090205490565b34801561029157600080fd5b5061017b610520565b61015f61052f565b3480156102ae57600080fd5b506101b16102bd366004610b76565b610577565b3480156102ce57600080fd5b506101d26102dd366004610bdc565b6105f2565b3480156102ee57600080fd5b506101b16102fd366004610b76565b610664565b34801561030e57600080fd5b5061015f61031d366004610bdc565b610672565b34801561032e57600080fd5b506101d261033d366004610c17565b610737565b6002600554036103995760405162461bcd60e51b815260206004820152601f60248201527f5265656e7472616e637947756172643a207265656e7472616e742063616c6c0060448201526064015b60405180910390fd5b6002600555565b6060600380546103af90610c4a565b80601f01602080910402602001604051908101604052809291908181526020018280546103db90610c4a565b80156104285780601f106103fd57610100808354040283529160200191610428565b820191906000526020600020905b81548152906001019060200180831161040b57829003601f168201915b5050505050905090565b600033610440818585610762565b60019150505b92915050565b60003361045a858285610886565b610465858585610900565b506001949350505050565b6000336104408185856104838383610737565b61048d9190610c9a565b610762565b600061049d826105f2565b90508034146104e25760405162461bcd60e51b8152602060048201526011602482015270141c9a58d9481a185cc810da185b99d959607a1b6044820152606401610390565b6104ed303384610900565b6040513490839033907fe3b6aaf4cc4028d456bf862d5692104d7cdb8e8ade29de09738f8cfd11bfdf0990600090a45050565b6060600480546103af90610c4a565b600061053a34610aa4565b9050610547303383610900565b604051819033907f7593751e5c59018fc6ec96371d225543723b833af71e780b3724952e98ef20e190600090a350565b600033816105858286610737565b9050838110156105e55760405162461bcd60e51b815260206004820152602560248201527f45524332303a2064656372656173656420616c6c6f77616e63652062656c6f77604482015264207a65726f60d81b6064820152608401610390565b6104658286868403610762565b306000908152602081905260408120547f000000000000000000000000000000000000000000000000000000000000000090479060006106328683610c9a565b61064490670de0b6b3a7640000610cad565b61064e9085610cc4565b905061065a8184610ce6565b9695505050505050565b600033610440818585610900565b336000908152602081905260409020548111156106a25760405163356680b760e01b815260040160405180910390fd5b60006106ad826105f2565b604051909150600090339083908381818185875af1925050503d80600081146106f2576040519150601f19603f3d011682016040523d82523d6000602084013e6106f7565b606091505b505090508061070557600080fd5b604051829033907f503a2df811d81f022e2e54117636a0b8a1c3a46edbeb6df7e78af610f526da2990600090a3505050565b6001600160a01b03918216600090815260016020908152604080832093909416825291909152205490565b6001600160a01b0383166107c45760405162461bcd60e51b8152602060048201526024808201527f45524332303a20617070726f76652066726f6d20746865207a65726f206164646044820152637265737360e01b6064820152608401610390565b6001600160a01b0382166108255760405162461bcd60e51b815260206004820152602260248201527f45524332303a20617070726f766520746f20746865207a65726f206164647265604482015261737360f01b6064820152608401610390565b6001600160a01b0383811660008181526001602090815260408083209487168084529482529182902085905590518481527f8c5be1e5ebec7d5bd14f71427d1e84f3dd0314c0f7b2291e5b200ac8c7c3b925910160405180910390a3505050565b60006108928484610737565b905060001981146108fa57818110156108ed5760405162461bcd60e51b815260206004820152601d60248201527f45524332303a20696e73756666696369656e7420616c6c6f77616e63650000006044820152606401610390565b6108fa8484848403610762565b50505050565b6001600160a01b0383166109645760405162461bcd60e51b815260206004820152602560248201527f45524332303a207472616e736665722066726f6d20746865207a65726f206164604482015264647265737360d81b6064820152608401610390565b6001600160a01b0382166109c65760405162461bcd60e51b815260206004820152602360248201527f45524332303a207472616e7366657220746f20746865207a65726f206164647260448201526265737360e81b6064820152608401610390565b6001600160a01b03831660009081526020819052604090205481811015610a3e5760405162461bcd60e51b815260206004820152602660248201527f45524332303a207472616e7366657220616d6f756e7420657863656564732062604482015265616c616e636560d01b6064820152608401610390565b6001600160a01b03848116600081815260208181526040808320878703905593871680835291849020805487019055925185815290927fddf252ad1be2c89b69c2b068fc378daa952ba7f163c4a11628f55a4df523b3ef910160405180910390a36108fa565b306000908152602081905260408120547f00000000000000000000000000000000000000000000000000000000000000009047906000610ae48684610c9a565b610af690670de0b6b3a7640000610cad565b610b009085610cc4565b905061065a8183610ce6565b600060208083528351808285015260005b81811015610b3957858101830151858201604001528201610b1d565b506000604082860101526040601f19601f8301168501019250505092915050565b80356001600160a01b0381168114610b7157600080fd5b919050565b60008060408385031215610b8957600080fd5b610b9283610b5a565b946020939093013593505050565b600080600060608486031215610bb557600080fd5b610bbe84610b5a565b9250610bcc60208501610b5a565b9150604084013590509250925092565b600060208284031215610bee57600080fd5b5035919050565b600060208284031215610c0757600080fd5b610c1082610b5a565b9392505050565b60008060408385031215610c2a57600080fd5b610c3383610b5a565b9150610c4160208401610b5a565b90509250929050565b600181811c90821680610c5e57607f821691505b602082108103610c7e57634e487b7160e01b600052602260045260246000fd5b50919050565b634e487b7160e01b600052601160045260246000fd5b8082018082111561044657610446610c84565b808202811582820484141761044657610446610c84565b600082610ce157634e487b7160e01b600052601260045260246000fd5b500490565b8181038181111561044657610446610c8456fea2646970667358221220ca8e74f6d4a70077b4baea3049b2352f754ba6663c7c734616da545be41084f964736f6c63430008150033",
    "linkReferences": {}
  },
  "methodIdentifiers": {
    "allowance(address,address)": "dd62ed3e",
    "approve(address,uint256)": "095ea7b3",
    "balanceOf(address)": "70a08231",
    "decimals()": "313ce567",
    "decreaseAllowance(address,uint256)": "a457c2d7",
    "increaseAllowance(address,uint256)": "39509351",
    "name()": "06fdde03",
    "requestETHforSTS(uint256)": "a48f42e8",
    "swapETHforExactToken(uint256)": "44cd5402",
    "swapETHforSTS()": "96956e8d",
    "swapSTSforETH(uint256)": "af0d0d20",
    "symbol()": "95d89b41",
    "totalSupply()": "18160ddd",
    "transfer(address,uint256)": "a9059cbb",
    "transferFrom(address,address,uint256)": "23b872dd"
  },
  "id": 5
}