{
  "abi": [
    {
      "inputs": [
        {
          "internalType": "uint256",
          "name": "initialSupply",
          "type": "uint256"
        }
      ],
      "stateMutability": "payable",
      "type": "constructor"
    },
    {
      "inputs": [],
      "name": "InsufficientFunds",
      "type": "error"
    },
    {
      "anonymous": false,
      "inputs": [
        {
          "indexed": true,
          "internalType": "address",
          "name": "to",
          "type": "address"
        },
        {
          "indexed": true,
          "internalType": "uint256",
          "name": "amount",
          "type": "uint256"
        }
      ],
      "name": "Airdrop",
      "type": "event"
    },
    {
      "anonymous": false,
      "inputs": [
        {
          "indexed": true,
          "internalType": "address",
          "name": "owner",
          "type": "address"
        },
        {
          "indexed": true,
          "internalType": "address",
          "name": "spender",
          "type": "address"
        },
        {
          "indexed": false,
          "internalType": "uint256",
          "name": "value",
          "type": "uint256"
        }
      ],
      "name": "Approval",
      "type": "event"
    },
    {
      "anonymous": false,
      "inputs": [
        {
          "indexed": true,
          "internalType": "address",
          "name": "to",
          "type": "address"
        },
        {
          "indexed": true,
          "internalType": "uint256",
          "name": "amount",
          "type": "uint256"
        }
      ],
      "name": "Lottery",
      "type": "event"
    },
    {
      "anonymous": false,
      "inputs": [
        {
          "indexed": true,
          "internalType": "address",
          "name": "from",
          "type": "address"
        },
        {
          "indexed": true,
          "internalType": "address",
          "name": "to",
          "type": "address"
        },
        {
          "indexed": false,
          "internalType": "uint256",
          "name": "value",
          "type": "uint256"
        }
      ],
      "name": "Transfer",
      "type": "event"
    },
    {
      "anonymous": false,
      "inputs": [
        {
          "indexed": true,
          "internalType": "address",
          "name": "to",
          "type": "address"
        },
        {
          "indexed": true,
          "internalType": "uint256",
          "name": "amount",
          "type": "uint256"
        }
      ],
      "name": "ethSwapforSTS",
      "type": "event"
    },
    {
      "anonymous": false,
      "inputs": [
        {
          "indexed": true,
          "internalType": "address",
          "name": "t0",
          "type": "address"
        },
        {
          "indexed": true,
          "internalType": "uint256",
          "name": "tokenAmount",
          "type": "uint256"
        },
        {
          "indexed": true,
          "internalType": "uint256",
          "name": "EthAmount",
          "type": "uint256"
        }
      ],
      "name": "exactTokenSwapped",
      "type": "event"
    },
    {
      "anonymous": false,
      "inputs": [
        {
          "indexed": true,
          "internalType": "address",
          "name": "to",
          "type": "address"
        },
        {
          "indexed": true,
          "internalType": "uint256",
          "name": "amount",
          "type": "uint256"
        }
      ],
      "name": "stsSwapforETH",
      "type": "event"
    },
    {
      "inputs": [
        {
          "internalType": "address",
          "name": "owner",
          "type": "address"
        },
        {
          "internalType": "address",
          "name": "spender",
          "type": "address"
        }
      ],
      "name": "allowance",
      "outputs": [
        {
          "internalType": "uint256",
          "name": "",
          "type": "uint256"
        }
      ],
      "stateMutability": "view",
      "type": "function"
    },
    {
      "inputs": [
        {
          "internalType": "address",
          "name": "spender",
          "type": "address"
        },
        {
          "internalType": "uint256",
          "name": "amount",
          "type": "uint256"
        }
      ],
      "name": "approve",
      "outputs": [
        {
          "internalType": "bool",
          "name": "",
          "type": "bool"
        }
      ],
      "stateMutability": "nonpayable",
      "type": "function"
    },
    {
      "inputs": [
        {
          "internalType": "address",
          "name": "account",
          "type": "address"
        }
      ],
      "name": "balanceOf",
      "outputs": [
        {
          "internalType": "uint256",
          "name": "",
          "type": "uint256"
        }
      ],
      "stateMutability": "view",
      "type": "function"
    },
    {
      "inputs": [],
      "name": "decimals",
      "outputs": [
        {
          "internalType": "uint8",
          "name": "",
          "type": "uint8"
        }
      ],
      "stateMutability": "view",
      "type": "function"
    },
    {
      "inputs": [
        {
          "internalType": "address",
          "name": "spender",
          "type": "address"
        },
        {
          "internalType": "uint256",
          "name": "subtractedValue",
          "type": "uint256"
        }
      ],
      "name": "decreaseAllowance",
      "outputs": [
        {
          "internalType": "bool",
          "name": "",
          "type": "bool"
        }
      ],
      "stateMutability": "nonpayable",
      "type": "function"
    },
    {
      "inputs": [
        {
          "internalType": "address",
          "name": "spender",
          "type": "address"
        },
        {
          "internalType": "uint256",
          "name": "addedValue",
          "type": "uint256"
        }
      ],
      "name": "increaseAllowance",
      "outputs": [
        {
          "internalType": "bool",
          "name": "",
          "type": "bool"
        }
      ],
      "stateMutability": "nonpayable",
      "type": "function"
    },
    {
      "inputs": [],
      "name": "name",
      "outputs": [
        {
          "internalType": "string",
          "name": "",
          "type": "string"
        }
      ],
      "stateMutability": "view",
      "type": "function"
    },
    {
      "inputs": [
        {
          "internalType": "uint256",
          "name": "",
          "type": "uint256"
        }
      ],
      "name": "randomness",
      "outputs": [
        {
          "internalType": "bool",
          "name": "exists",
          "type": "bool"
        },
        {
          "internalType": "bool",
          "name": "fulfiled",
          "type": "bool"
        }
      ],
      "stateMutability": "view",
      "type": "function"
    },
    {
      "inputs": [
        {
          "internalType": "uint256",
          "name": "amount",
          "type": "uint256"
        }
      ],
      "name": "requestETHforSTS",
      "outputs": [
        {
          "internalType": "uint256",
          "name": "newEthTokenValue",
          "type": "uint256"
        }
      ],
      "stateMutability": "view",
      "type": "function"
    },
    {
      "inputs": [
        {
          "internalType": "uint256",
          "name": "amount",
          "type": "uint256"
        }
      ],
      "name": "requestSTSforETH",
      "outputs": [
        {
          "internalType": "uint256",
          "name": "STS",
          "type": "uint256"
        }
      ],
      "stateMutability": "view",
      "type": "function"
    },
    {
      "inputs": [
        {
          "internalType": "uint256",
          "name": "amount",
          "type": "uint256"
        }
      ],
      "name": "swapETHforExactToken",
      "outputs": [],
      "stateMutability": "payable",
      "type": "function"
    },
    {
      "inputs": [],
      "name": "swapETHforSTS",
      "outputs": [],
      "stateMutability": "payable",
      "type": "function"
    },
    {
      "inputs": [
        {
          "internalType": "uint256",
          "name": "amount",
          "type": "uint256"
        }
      ],
      "name": "swapSTSforETH",
      "outputs": [],
      "stateMutability": "nonpayable",
      "type": "function"
    },
    {
      "inputs": [],
      "name": "symbol",
      "outputs": [
        {
          "internalType": "string",
          "name": "",
          "type": "string"
        }
      ],
      "stateMutability": "view",
      "type": "function"
    },
    {
      "inputs": [],
      "name": "totalSupply",
      "outputs": [
        {
          "internalType": "uint256",
          "name": "",
          "type": "uint256"
        }
      ],
      "stateMutability": "view",
      "type": "function"
    },
    {
      "inputs": [
        {
          "internalType": "address",
          "name": "to",
          "type": "address"
        },
        {
          "internalType": "uint256",
          "name": "amount",
          "type": "uint256"
        }
      ],
      "name": "transfer",
      "outputs": [
        {
          "internalType": "bool",
          "name": "",
          "type": "bool"
        }
      ],
      "stateMutability": "nonpayable",
      "type": "function"
    },
    {
      "inputs": [
        {
          "internalType": "address",
          "name": "from",
          "type": "address"
        },
        {
          "internalType": "address",
          "name": "to",
          "type": "address"
        },
        {
          "internalType": "uint256",
          "name": "amount",
          "type": "uint256"
        }
      ],
      "name": "transferFrom",
      "outputs": [
        {
          "internalType": "bool",
          "name": "",
          "type": "bool"
        }
      ],
      "stateMutability": "nonpayable",
      "type": "function"
    },
    {
      "stateMutability": "payable",
      "type": "receive"
    }
  ],
  "bytecode": {
    "object": "0x60a06040526040516200102338038062001023833981016040819052620000269162000173565b604051806040016040528060068152602001655354454c4c4160d01b8152506040518060400160405280600381526020016253545360e81b815250816003908162000072919062000231565b50600462000081828262000231565b505050348162000092919062000313565b608052620000a13082620000a8565b5062000349565b6001600160a01b038216620001035760405162461bcd60e51b815260206004820152601f60248201527f45524332303a206d696e7420746f20746865207a65726f206164647265737300604482015260640160405180910390fd5b806002600082825462000117919062000333565b90915550506001600160a01b038216600081815260208181526040808320805486019055518481527fddf252ad1be2c89b69c2b068fc378daa952ba7f163c4a11628f55a4df523b3ef910160405180910390a35050565b505050565b6000602082840312156200018657600080fd5b5051919050565b634e487b7160e01b600052604160045260246000fd5b600181811c90821680620001b857607f821691505b602082108103620001d957634e487b7160e01b600052602260045260246000fd5b50919050565b601f8211156200016e57600081815260208120601f850160051c81016020861015620002085750805b601f850160051c820191505b81811015620002295782815560010162000214565b505050505050565b81516001600160401b038111156200024d576200024d6200018d565b62000265816200025e8454620001a3565b84620001df565b602080601f8311600181146200029d5760008415620002845750858301515b600019600386901b1c1916600185901b17855562000229565b600085815260208120601f198616915b82811015620002ce57888601518255948401946001909101908401620002ad565b5085821015620002ed5787850151600019600388901b60f8161c191681555b5050505050600190811b01905550565b634e487b7160e01b600052601160045260246000fd5b80820281158282048414176200032d576200032d620002fd565b92915050565b808201808211156200032d576200032d620002fd565b608051610cb76200036c6000396000818161043e01526106260152610cb76000f3fe6080604052600436106101025760003560e01c806344cd540211610095578063a457c2d711610064578063a457c2d7146102bc578063a48f42e8146102dc578063a9059cbb146102fc578063af0d0d201461031c578063dd62ed3e1461033c57600080fd5b806344cd54021461025457806370a082311461026957806395d89b411461029f57806396956e8d146102b457600080fd5b806323b872dd116100d157806323b872dd146101d85780632f8b9cba146101f8578063313ce56714610218578063395093511461023457600080fd5b806306fdde031461010e578063095ea7b31461013957806318160ddd146101695780631b1d5b271461018857600080fd5b3661010957005b600080fd5b34801561011a57600080fd5b5061012361035c565b6040516101309190610aab565b60405180910390f35b34801561014557600080fd5b50610159610154366004610b15565b6103ee565b6040519015158152602001610130565b34801561017557600080fd5b506002545b604051908152602001610130565b34801561019457600080fd5b506101c16101a3366004610b3f565b60056020526000908152604090205460ff8082169161010090041682565b604080519215158352901515602083015201610130565b3480156101e457600080fd5b506101596101f3366004610b58565b610408565b34801561020457600080fd5b5061017a610213366004610b3f565b61042c565b34801561022457600080fd5b5060405160128152602001610130565b34801561024057600080fd5b5061015961024f366004610b15565b61048d565b610267610262366004610b3f565b6104af565b005b34801561027557600080fd5b5061017a610284366004610b94565b6001600160a01b031660009081526020819052604090205490565b3480156102ab57600080fd5b50610123610542565b610267610551565b3480156102c857600080fd5b506101596102d7366004610b15565b610599565b3480156102e857600080fd5b5061017a6102f7366004610b3f565b610614565b34801561030857600080fd5b50610159610317366004610b15565b61066b565b34801561032857600080fd5b50610267610337366004610b3f565b610679565b34801561034857600080fd5b5061017a610357366004610bb6565b61073e565b60606003805461036b90610be9565b80601f016020809104026020016040519081016040528092919081815260200182805461039790610be9565b80156103e45780601f106103b9576101008083540402835291602001916103e4565b820191906000526020600020905b8154815290600101906020018083116103c757829003601f168201915b5050505050905090565b6000336103fc818585610769565b60019150505b92915050565b60003361041685828561088d565b610421858585610907565b506001949350505050565b306000908152602081905260408120547f000000000000000000000000000000000000000000000000000000000000000090479060008561046d8486610c39565b6104779190610c5b565b90506104838183610c6e565b9695505050505050565b6000336103fc8185856104a0838361073e565b6104aa9190610c5b565b610769565b60006104ba82610614565b90508034146105045760405162461bcd60e51b8152602060048201526011602482015270141c9a58d9481a185cc810da185b99d959607a1b60448201526064015b60405180910390fd5b61050f303384610907565b6040513490839033907fe3b6aaf4cc4028d456bf862d5692104d7cdb8e8ade29de09738f8cfd11bfdf0990600090a45050565b60606004805461036b90610be9565b600061055c3461042c565b9050610569303383610907565b604051819033907f7593751e5c59018fc6ec96371d225543723b833af71e780b3724952e98ef20e190600090a350565b600033816105a7828661073e565b9050838110156106075760405162461bcd60e51b815260206004820152602560248201527f45524332303a2064656372656173656420616c6c6f77616e63652062656c6f77604482015264207a65726f60d81b60648201526084016104fb565b6104218286868403610769565b306000908152602081905260408120547f00000000000000000000000000000000000000000000000000000000000000009047906000856106558386610c39565b61065f9190610c5b565b90506104838184610c6e565b6000336103fc818585610907565b336000908152602081905260409020548111156106a95760405163356680b760e01b815260040160405180910390fd5b60006106b482610614565b604051909150600090339083908381818185875af1925050503d80600081146106f9576040519150601f19603f3d011682016040523d82523d6000602084013e6106fe565b606091505b505090508061070c57600080fd5b604051829033907f503a2df811d81f022e2e54117636a0b8a1c3a46edbeb6df7e78af610f526da2990600090a3505050565b6001600160a01b03918216600090815260016020908152604080832093909416825291909152205490565b6001600160a01b0383166107cb5760405162461bcd60e51b8152602060048201526024808201527f45524332303a20617070726f76652066726f6d20746865207a65726f206164646044820152637265737360e01b60648201526084016104fb565b6001600160a01b03821661082c5760405162461bcd60e51b815260206004820152602260248201527f45524332303a20617070726f766520746f20746865207a65726f206164647265604482015261737360f01b60648201526084016104fb565b6001600160a01b0383811660008181526001602090815260408083209487168084529482529182902085905590518481527f8c5be1e5ebec7d5bd14f71427d1e84f3dd0314c0f7b2291e5b200ac8c7c3b925910160405180910390a3505050565b6000610899848461073e565b9050600019811461090157818110156108f45760405162461bcd60e51b815260206004820152601d60248201527f45524332303a20696e73756666696369656e7420616c6c6f77616e636500000060448201526064016104fb565b6109018484848403610769565b50505050565b6001600160a01b03831661096b5760405162461bcd60e51b815260206004820152602560248201527f45524332303a207472616e736665722066726f6d20746865207a65726f206164604482015264647265737360d81b60648201526084016104fb565b6001600160a01b0382166109cd5760405162461bcd60e51b815260206004820152602360248201527f45524332303a207472616e7366657220746f20746865207a65726f206164647260448201526265737360e81b60648201526084016104fb565b6001600160a01b03831660009081526020819052604090205481811015610a455760405162461bcd60e51b815260206004820152602660248201527f45524332303a207472616e7366657220616d6f756e7420657863656564732062604482015265616c616e636560d01b60648201526084016104fb565b6001600160a01b03848116600081815260208181526040808320878703905593871680835291849020805487019055925185815290927fddf252ad1be2c89b69c2b068fc378daa952ba7f163c4a11628f55a4df523b3ef910160405180910390a3610901565b600060208083528351808285015260005b81811015610ad857858101830151858201604001528201610abc565b506000604082860101526040601f19601f8301168501019250505092915050565b80356001600160a01b0381168114610b1057600080fd5b919050565b60008060408385031215610b2857600080fd5b610b3183610af9565b946020939093013593505050565b600060208284031215610b5157600080fd5b5035919050565b600080600060608486031215610b6d57600080fd5b610b7684610af9565b9250610b8460208501610af9565b9150604084013590509250925092565b600060208284031215610ba657600080fd5b610baf82610af9565b9392505050565b60008060408385031215610bc957600080fd5b610bd283610af9565b9150610be060208401610af9565b90509250929050565b600181811c90821680610bfd57607f821691505b602082108103610c1d57634e487b7160e01b600052602260045260246000fd5b50919050565b634e487b7160e01b600052601160045260246000fd5b600082610c5657634e487b7160e01b600052601260045260246000fd5b500490565b8082018082111561040257610402610c23565b8181038181111561040257610402610c2356fea2646970667358221220af7f008c1b45798a9f2723c5eded9b3236b8a7cb15d175be3ed3b4fc1149713164736f6c63430008150033",
    "linkReferences": {}
  },
  "methodIdentifiers": {
    "allowance(address,address)": "dd62ed3e",
    "approve(address,uint256)": "095ea7b3",
    "balanceOf(address)": "70a08231",
    "decimals()": "313ce567",
    "decreaseAllowance(address,uint256)": "a457c2d7",
    "increaseAllowance(address,uint256)": "39509351",
    "name()": "06fdde03",
    "randomness(uint256)": "1b1d5b27",
    "requestETHforSTS(uint256)": "a48f42e8",
    "requestSTSforETH(uint256)": "2f8b9cba",
    "swapETHforExactToken(uint256)": "44cd5402",
    "swapETHforSTS()": "96956e8d",
    "swapSTSforETH(uint256)": "af0d0d20",
    "symbol()": "95d89b41",
    "totalSupply()": "18160ddd",
    "transfer(address,uint256)": "a9059cbb",
    "transferFrom(address,address,uint256)": "23b872dd"
  },
  "id": 4
}